{
  "contractName": "ServiceRequest",
  "abi": [
    {
      "constant": true,
      "inputs": [
        {
          "name": "",
          "type": "address"
        }
      ],
      "name": "balances",
      "outputs": [
        {
          "name": "",
          "type": "uint256"
        }
      ],
      "payable": false,
      "stateMutability": "view",
      "type": "function"
    },
    {
      "constant": true,
      "inputs": [],
      "name": "minStake",
      "outputs": [
        {
          "name": "",
          "type": "uint256"
        }
      ],
      "payable": false,
      "stateMutability": "view",
      "type": "function"
    },
    {
      "constant": true,
      "inputs": [],
      "name": "maxStakers",
      "outputs": [
        {
          "name": "",
          "type": "uint256"
        }
      ],
      "payable": false,
      "stateMutability": "view",
      "type": "function"
    },
    {
      "constant": true,
      "inputs": [],
      "name": "nextRequestId",
      "outputs": [
        {
          "name": "",
          "type": "uint256"
        }
      ],
      "payable": false,
      "stateMutability": "view",
      "type": "function"
    },
    {
      "constant": true,
      "inputs": [
        {
          "name": "",
          "type": "uint256"
        }
      ],
      "name": "requests",
      "outputs": [
        {
          "name": "requestId",
          "type": "uint256"
        },
        {
          "name": "requester",
          "type": "address"
        },
        {
          "name": "totalFund",
          "type": "uint256"
        },
        {
          "name": "documentURI",
          "type": "bytes"
        },
        {
          "name": "expiration",
          "type": "uint256"
        },
        {
          "name": "endSubmission",
          "type": "uint256"
        },
        {
          "name": "endEvaluation",
          "type": "uint256"
        },
        {
          "name": "status",
          "type": "uint8"
        }
      ],
      "payable": false,
      "stateMutability": "view",
      "type": "function"
    },
    {
      "constant": true,
      "inputs": [],
      "name": "owner",
      "outputs": [
        {
          "name": "",
          "type": "address"
        }
      ],
      "payable": false,
      "stateMutability": "view",
      "type": "function"
    },
    {
      "constant": true,
      "inputs": [
        {
          "name": "",
          "type": "address"
        }
      ],
      "name": "foundationMembers",
      "outputs": [
        {
          "name": "role",
          "type": "uint256"
        },
        {
          "name": "status",
          "type": "bool"
        },
        {
          "name": "exists",
          "type": "bool"
        }
      ],
      "payable": false,
      "stateMutability": "view",
      "type": "function"
    },
    {
      "constant": true,
      "inputs": [
        {
          "name": "",
          "type": "uint256"
        }
      ],
      "name": "memberKeys",
      "outputs": [
        {
          "name": "",
          "type": "address"
        }
      ],
      "payable": false,
      "stateMutability": "view",
      "type": "function"
    },
    {
      "constant": true,
      "inputs": [],
      "name": "token",
      "outputs": [
        {
          "name": "",
          "type": "address"
        }
      ],
      "payable": false,
      "stateMutability": "view",
      "type": "function"
    },
    {
      "inputs": [
        {
          "name": "_token",
          "type": "address"
        },
        {
          "name": "_minStake",
          "type": "uint256"
        },
        {
          "name": "_maxStakers",
          "type": "uint256"
        }
      ],
      "payable": false,
      "stateMutability": "nonpayable",
      "type": "constructor"
    },
    {
      "anonymous": false,
      "inputs": [
        {
          "indexed": true,
          "name": "member",
          "type": "address"
        },
        {
          "indexed": false,
          "name": "role",
          "type": "uint256"
        },
        {
          "indexed": false,
          "name": "status",
          "type": "bool"
        },
        {
          "indexed": true,
          "name": "actor",
          "type": "address"
        }
      ],
      "name": "AddFoundationMember",
      "type": "event"
    },
    {
      "anonymous": false,
      "inputs": [
        {
          "indexed": false,
          "name": "requestId",
          "type": "uint256"
        },
        {
          "indexed": true,
          "name": "requester",
          "type": "address"
        },
        {
          "indexed": false,
          "name": "expiration",
          "type": "uint256"
        },
        {
          "indexed": false,
          "name": "amount",
          "type": "uint256"
        },
        {
          "indexed": false,
          "name": "documentURI",
          "type": "bytes"
        }
      ],
      "name": "CreateRequest",
      "type": "event"
    },
    {
      "anonymous": false,
      "inputs": [
        {
          "indexed": true,
          "name": "requestId",
          "type": "uint256"
        },
        {
          "indexed": true,
          "name": "requester",
          "type": "address"
        },
        {
          "indexed": false,
          "name": "expiration",
          "type": "uint256"
        }
      ],
      "name": "ExtendRequest",
      "type": "event"
    },
    {
      "anonymous": false,
      "inputs": [
        {
          "indexed": true,
          "name": "requestId",
          "type": "uint256"
        },
        {
          "indexed": true,
          "name": "approver",
          "type": "address"
        },
        {
          "indexed": false,
          "name": "endSubmission",
          "type": "uint256"
        },
        {
          "indexed": false,
          "name": "endEvaluation",
          "type": "uint256"
        },
        {
          "indexed": false,
          "name": "expiration",
          "type": "uint256"
        }
      ],
      "name": "ApproveRequest",
      "type": "event"
    },
    {
      "anonymous": false,
      "inputs": [
        {
          "indexed": true,
          "name": "requestId",
          "type": "uint256"
        },
        {
          "indexed": true,
          "name": "staker",
          "type": "address"
        },
        {
          "indexed": false,
          "name": "amount",
          "type": "uint256"
        }
      ],
      "name": "FundRequest",
      "type": "event"
    },
    {
      "anonymous": false,
      "inputs": [
        {
          "indexed": true,
          "name": "requestId",
          "type": "uint256"
        },
        {
          "indexed": true,
          "name": "submitter",
          "type": "address"
        },
        {
          "indexed": false,
          "name": "solutionDocURI",
          "type": "bytes"
        }
      ],
      "name": "AddSolutionRequest",
      "type": "event"
    },
    {
      "anonymous": false,
      "inputs": [
        {
          "indexed": true,
          "name": "requestId",
          "type": "uint256"
        },
        {
          "indexed": true,
          "name": "voter",
          "type": "address"
        },
        {
          "indexed": true,
          "name": "submitter",
          "type": "address"
        }
      ],
      "name": "VoteRequest",
      "type": "event"
    },
    {
      "anonymous": false,
      "inputs": [
        {
          "indexed": true,
          "name": "requestId",
          "type": "uint256"
        },
        {
          "indexed": true,
          "name": "submitter",
          "type": "address"
        },
        {
          "indexed": false,
          "name": "amount",
          "type": "uint256"
        }
      ],
      "name": "ClaimRequest",
      "type": "event"
    },
    {
      "anonymous": false,
      "inputs": [
        {
          "indexed": true,
          "name": "requestId",
          "type": "uint256"
        },
        {
          "indexed": true,
          "name": "actor",
          "type": "address"
        }
      ],
      "name": "CloseRequest",
      "type": "event"
    },
    {
      "anonymous": false,
      "inputs": [
        {
          "indexed": true,
          "name": "requestId",
          "type": "uint256"
        },
        {
          "indexed": true,
          "name": "actor",
          "type": "address"
        }
      ],
      "name": "RejectRequest",
      "type": "event"
    },
    {
      "constant": false,
      "inputs": [
        {
          "name": "value",
          "type": "uint256"
        }
      ],
      "name": "deposit",
      "outputs": [
        {
          "name": "",
          "type": "bool"
        }
      ],
      "payable": false,
      "stateMutability": "nonpayable",
      "type": "function"
    },
    {
      "constant": false,
      "inputs": [
        {
          "name": "value",
          "type": "uint256"
        }
      ],
      "name": "withdraw",
      "outputs": [
        {
          "name": "",
          "type": "bool"
        }
      ],
      "payable": false,
      "stateMutability": "nonpayable",
      "type": "function"
    },
    {
      "constant": false,
      "inputs": [
        {
          "name": "newOwner",
          "type": "address"
        }
      ],
      "name": "updateOwner",
      "outputs": [
        {
          "name": "",
          "type": "bool"
        }
      ],
      "payable": false,
      "stateMutability": "nonpayable",
      "type": "function"
    },
    {
      "constant": false,
      "inputs": [
        {
          "name": "_minStake",
          "type": "uint256"
        },
        {
          "name": "_maxStakers",
          "type": "uint256"
        }
      ],
      "name": "updateLimits",
      "outputs": [
        {
          "name": "",
          "type": "bool"
        }
      ],
      "payable": false,
      "stateMutability": "nonpayable",
      "type": "function"
    },
    {
      "constant": false,
      "inputs": [
        {
          "name": "member",
          "type": "address"
        },
        {
          "name": "role",
          "type": "uint256"
        },
        {
          "name": "active",
          "type": "bool"
        }
      ],
      "name": "addOrUpdateFoundationMembers",
      "outputs": [
        {
          "name": "",
          "type": "bool"
        }
      ],
      "payable": false,
      "stateMutability": "nonpayable",
      "type": "function"
    },
    {
      "constant": false,
      "inputs": [
        {
          "name": "value",
          "type": "uint256"
        },
        {
          "name": "expiration",
          "type": "uint256"
        },
        {
          "name": "documentURI",
          "type": "bytes"
        }
      ],
      "name": "createRequest",
      "outputs": [
        {
          "name": "",
          "type": "bool"
        }
      ],
      "payable": false,
      "stateMutability": "nonpayable",
      "type": "function"
    },
    {
      "constant": false,
      "inputs": [
        {
          "name": "value",
          "type": "uint256"
        },
        {
          "name": "expiration",
          "type": "uint256"
        },
        {
          "name": "documentURI",
          "type": "bytes"
        }
      ],
      "name": "depositAndCreateRequest",
      "outputs": [
        {
          "name": "",
          "type": "bool"
        }
      ],
      "payable": false,
      "stateMutability": "nonpayable",
      "type": "function"
    },
    {
      "constant": false,
      "inputs": [
        {
          "name": "requestId",
          "type": "uint256"
        },
        {
          "name": "newExpiration",
          "type": "uint256"
        }
      ],
      "name": "extendRequest",
      "outputs": [
        {
          "name": "",
          "type": "bool"
        }
      ],
      "payable": false,
      "stateMutability": "nonpayable",
      "type": "function"
    },
    {
      "constant": false,
      "inputs": [
        {
          "name": "requestId",
          "type": "uint256"
        },
        {
          "name": "amount",
          "type": "uint256"
        }
      ],
      "name": "addFundsToRequest",
      "outputs": [
        {
          "name": "",
          "type": "bool"
        }
      ],
      "payable": false,
      "stateMutability": "nonpayable",
      "type": "function"
    },
    {
      "constant": false,
      "inputs": [
        {
          "name": "requestId",
          "type": "uint256"
        },
        {
          "name": "newExpiration",
          "type": "uint256"
        },
        {
          "name": "amount",
          "type": "uint256"
        }
      ],
      "name": "extendAndAddFundsToRequest",
      "outputs": [],
      "payable": false,
      "stateMutability": "nonpayable",
      "type": "function"
    },
    {
      "constant": false,
      "inputs": [
        {
          "name": "requestId",
          "type": "uint256"
        },
        {
          "name": "endSubmission",
          "type": "uint256"
        },
        {
          "name": "endEvaluation",
          "type": "uint256"
        },
        {
          "name": "newExpiration",
          "type": "uint256"
        }
      ],
      "name": "approveRequest",
      "outputs": [
        {
          "name": "",
          "type": "bool"
        }
      ],
      "payable": false,
      "stateMutability": "nonpayable",
      "type": "function"
    },
    {
      "constant": false,
      "inputs": [
        {
          "name": "requestId",
          "type": "uint256"
        }
      ],
      "name": "rejectRequest",
      "outputs": [
        {
          "name": "",
          "type": "bool"
        }
      ],
      "payable": false,
      "stateMutability": "nonpayable",
      "type": "function"
    },
    {
      "constant": false,
      "inputs": [
        {
          "name": "requestId",
          "type": "uint256"
        }
      ],
      "name": "closeRequest",
      "outputs": [
        {
          "name": "",
          "type": "bool"
        }
      ],
      "payable": false,
      "stateMutability": "nonpayable",
      "type": "function"
    },
    {
      "constant": false,
      "inputs": [
        {
          "name": "requestId",
          "type": "uint256"
        },
        {
          "name": "solutionDocURI",
          "type": "bytes"
        }
      ],
      "name": "createOrUpdateSolutionProposal",
      "outputs": [
        {
          "name": "",
          "type": "bool"
        }
      ],
      "payable": false,
      "stateMutability": "nonpayable",
      "type": "function"
    },
    {
      "constant": false,
      "inputs": [
        {
          "name": "requestId",
          "type": "uint256"
        },
        {
          "name": "solutionSubmitter",
          "type": "address"
        }
      ],
      "name": "vote",
      "outputs": [
        {
          "name": "",
          "type": "bool"
        }
      ],
      "payable": false,
      "stateMutability": "nonpayable",
      "type": "function"
    },
    {
      "constant": false,
      "inputs": [
        {
          "name": "requestId",
          "type": "uint256"
        }
      ],
      "name": "requestClaimBack",
      "outputs": [
        {
          "name": "",
          "type": "bool"
        }
      ],
      "payable": false,
      "stateMutability": "nonpayable",
      "type": "function"
    },
    {
      "constant": false,
      "inputs": [
        {
          "name": "requestId",
          "type": "uint256"
        }
      ],
      "name": "requestClaim",
      "outputs": [
        {
          "name": "",
          "type": "bool"
        }
      ],
      "payable": false,
      "stateMutability": "nonpayable",
      "type": "function"
    },
    {
      "constant": true,
      "inputs": [],
      "name": "getFoundationMemberKeys",
      "outputs": [
        {
          "name": "",
          "type": "address[]"
        }
      ],
      "payable": false,
      "stateMutability": "view",
      "type": "function"
    },
    {
      "constant": true,
      "inputs": [
        {
          "name": "reqId",
          "type": "uint256"
        }
      ],
      "name": "getServiceRequestById",
      "outputs": [
        {
          "name": "found",
          "type": "bool"
        },
        {
          "name": "requestId",
          "type": "uint256"
        },
        {
          "name": "requester",
          "type": "address"
        },
        {
          "name": "totalFund",
          "type": "uint256"
        },
        {
          "name": "documentURI",
          "type": "bytes"
        },
        {
          "name": "expiration",
          "type": "uint256"
        },
        {
          "name": "endSubmission",
          "type": "uint256"
        },
        {
          "name": "endEvaluation",
          "type": "uint256"
        },
        {
          "name": "status",
          "type": "uint8"
        },
        {
          "name": "stakeMembers",
          "type": "address[]"
        },
        {
          "name": "submitters",
          "type": "address[]"
        }
      ],
      "payable": false,
      "stateMutability": "view",
      "type": "function"
    },
    {
      "constant": true,
      "inputs": [
        {
          "name": "requestId",
          "type": "uint256"
        },
        {
          "name": "submitter",
          "type": "address"
        }
      ],
      "name": "getSubmittedSolutionById",
      "outputs": [
        {
          "name": "found",
          "type": "bool"
        },
        {
          "name": "solutionDocURI",
          "type": "bytes"
        },
        {
          "name": "totalVotes",
          "type": "uint256"
        },
        {
          "name": "isSubmitted",
          "type": "bool"
        },
        {
          "name": "isShortlisted",
          "type": "bool"
        },
        {
          "name": "isClaimed",
          "type": "bool"
        }
      ],
      "payable": false,
      "stateMutability": "view",
      "type": "function"
    },
    {
      "constant": true,
      "inputs": [
        {
          "name": "requestId",
          "type": "uint256"
        },
        {
          "name": "staker",
          "type": "address"
        }
      ],
      "name": "getStakeById",
      "outputs": [
        {
          "name": "found",
          "type": "bool"
        },
        {
          "name": "stake",
          "type": "uint256"
        }
      ],
      "payable": false,
      "stateMutability": "view",
      "type": "function"
    }
  ],
  "bytecode": "0x608060405234801561001057600080fd5b50604051606080614a7983398101806040528101908080519060200190929190805190602001909291908051906020019092919050505082600860006101000a81548173ffffffffffffffffffffffffffffffffffffffff021916908373ffffffffffffffffffffffffffffffffffffffff16021790555033600560006101000a81548173ffffffffffffffffffffffffffffffffffffffff021916908373ffffffffffffffffffffffffffffffffffffffff160217905550600080819055508160038190555080600481905550505050614989806100f06000396000f300608060405260043610610180576000357c0100000000000000000000000000000000000000000000000000000000900463ffffffff16806302d947ef146101855780630eaa4767146101ea578063168b344f1461024d57806327be5121146102b957806327e235e3146103255780632d7788db1461037c5780632e1a7d4d146103c1578063375b3c0a1461040657806339fe7e21146104315780633c3ff3ef146104c65780634f7ff503146105155780636a84a985146105405780637b731f731461056b57806381d12c58146105b0578063880cdc31146106c15780638da5cb5b1461071c578063a2240e1914610773578063a7e5c8f0146107c2578063ac6a08de14610833578063b33bb6a5146108a0578063b6b55f251461092b578063b72f5bf414610970578063ca7f7486146109b1578063cd8320ed14610aaa578063e00b288a14610c56578063f0282b7f14610c9b578063f504b08914610ce0578063f8a880aa14610d4d578063fc0c546a14610de2578063fe444e5614610e39575b600080fd5b34801561019157600080fd5b506101d060048036038101908080359060200190929190803573ffffffffffffffffffffffffffffffffffffffff169060200190929190505050610e88565b604051808215151515815260200191505060405180910390f35b3480156101f657600080fd5b5061023360048036038101908080359060200190929190803590602001909291908035906020019092919080359060200190929190505050611156565b604051808215151515815260200191505060405180910390f35b34801561025957600080fd5b506102626112d5565b6040518080602001828103825283818151815260200191508051906020019060200280838360005b838110156102a557808201518184015260208101905061028a565b505050509050019250505060405180910390f35b3480156102c557600080fd5b5061030460048036038101908080359060200190929190803573ffffffffffffffffffffffffffffffffffffffff169060200190929190505050611363565b60405180831515151581526020018281526020019250505060405180910390f35b34801561033157600080fd5b50610366600480360381019080803573ffffffffffffffffffffffffffffffffffffffff169060200190929190505050611421565b6040518082815260200191505060405180910390f35b34801561038857600080fd5b506103a760048036038101908080359060200190929190505050611439565b604051808215151515815260200191505060405180910390f35b3480156103cd57600080fd5b506103ec60048036038101908080359060200190929190505050611555565b604051808215151515815260200191505060405180910390f35b34801561041257600080fd5b5061041b61174e565b6040518082815260200191505060405180910390f35b34801561043d57600080fd5b506104ac6004803603810190808035906020019092919080359060200190929190803590602001908201803590602001908080601f0160208091040260200160405190810160405280939291908181526020018383808284378201915050505050509192919290505050611754565b604051808215151515815260200191505060405180910390f35b3480156104d257600080fd5b506104fb6004803603810190808035906020019092919080359060200190929190505050611c1f565b604051808215151515815260200191505060405180910390f35b34801561052157600080fd5b5061052a612040565b6040518082815260200191505060405180910390f35b34801561054c57600080fd5b50610555612046565b6040518082815260200191505060405180910390f35b34801561057757600080fd5b506105966004803603810190808035906020019092919050505061204c565b604051808215151515815260200191505060405180910390f35b3480156105bc57600080fd5b506105db600480360381019080803590602001909291905050506122f6565b604051808981526020018873ffffffffffffffffffffffffffffffffffffffff1673ffffffffffffffffffffffffffffffffffffffff1681526020018781526020018060200186815260200185815260200184815260200183600481111561063f57fe5b60ff168152602001828103825287818151815260200191508051906020019080838360005b8381101561067f578082015181840152602081019050610664565b50505050905090810190601f1680156106ac5780820380516001836020036101000a031916815260200191505b50995050505050505050505060405180910390f35b3480156106cd57600080fd5b50610702600480360381019080803573ffffffffffffffffffffffffffffffffffffffff169060200190929190505050612403565b604051808215151515815260200191505060405180910390f35b34801561072857600080fd5b506107316124e7565b604051808273ffffffffffffffffffffffffffffffffffffffff1673ffffffffffffffffffffffffffffffffffffffff16815260200191505060405180910390f35b34801561077f57600080fd5b506107a8600480360381019080803590602001909291908035906020019092919050505061250d565b604051808215151515815260200191505060405180910390f35b3480156107ce57600080fd5b50610819600480360381019080803573ffffffffffffffffffffffffffffffffffffffff16906020019092919080359060200190929190803515159060200190929190505050612583565b604051808215151515815260200191505060405180910390f35b34801561083f57600080fd5b50610874600480360381019080803573ffffffffffffffffffffffffffffffffffffffff1690602001909291905050506129a7565b604051808481526020018315151515815260200182151515158152602001935050505060405180910390f35b3480156108ac57600080fd5b5061091160048036038101908080359060200190929190803590602001908201803590602001908080601f01602080910402602001604051908101604052809392919081815260200183838082843782019150505050505091929192905050506129eb565b604051808215151515815260200191505060405180910390f35b34801561093757600080fd5b5061095660048036038101908080359060200190929190505050612d66565b604051808215151515815260200191505060405180910390f35b34801561097c57600080fd5b506109af600480360381019080803590602001909291908035906020019092919080359060200190929190505050612fd4565b005b3480156109bd57600080fd5b506109fc60048036038101908080359060200190929190803573ffffffffffffffffffffffffffffffffffffffff169060200190929190505050613003565b604051808715151515815260200180602001868152602001851515151581526020018415151515815260200183151515158152602001828103825287818151815260200191508051906020019080838360005b83811015610a6a578082015181840152602081019050610a4f565b50505050905090810190601f168015610a975780820380516001836020036101000a031916815260200191505b5097505050505050505060405180910390f35b348015610ab657600080fd5b50610ad5600480360381019080803590602001909291905050506132bd565b604051808c1515151581526020018b81526020018a73ffffffffffffffffffffffffffffffffffffffff1673ffffffffffffffffffffffffffffffffffffffff16815260200189815260200180602001888152602001878152602001868152602001856004811115610b4357fe5b60ff168152602001806020018060200184810384528b818151815260200191508051906020019080838360005b83811015610b8b578082015181840152602081019050610b70565b50505050905090810190601f168015610bb85780820380516001836020036101000a031916815260200191505b50848103835286818151815260200191508051906020019060200280838360005b83811015610bf4578082015181840152602081019050610bd9565b50505050905001848103825285818151815260200191508051906020019060200280838360005b83811015610c36578082015181840152602081019050610c1b565b505050509050019e50505050505050505050505050505060405180910390f35b348015610c6257600080fd5b50610c816004803603810190808035906020019092919050505061360a565b604051808215151515815260200191505060405180910390f35b348015610ca757600080fd5b50610cc660048036038101908080359060200190929190505050613fa6565b604051808215151515815260200191505060405180910390f35b348015610cec57600080fd5b50610d0b600480360381019080803590602001909291905050506140bf565b604051808273ffffffffffffffffffffffffffffffffffffffff1673ffffffffffffffffffffffffffffffffffffffff16815260200191505060405180910390f35b348015610d5957600080fd5b50610dc86004803603810190808035906020019092919080359060200190929190803590602001908201803590602001908080601f01602080910402602001604051908101604052809392919081815260200183838082843782019150505050505091929192905050506140fd565b604051808215151515815260200191505060405180910390f35b348015610dee57600080fd5b50610df7614134565b604051808273ffffffffffffffffffffffffffffffffffffffff1673ffffffffffffffffffffffffffffffffffffffff16815260200191505060405180910390f35b348015610e4557600080fd5b50610e6e600480360381019080803590602001909291908035906020019092919050505061415a565b604051808215151515815260200191505060405180910390f35b60008060016000858152602001908152602001600020905060016004811115610ead57fe5b8160070160009054906101000a900460ff166004811115610eca57fe5b141515610ed657600080fd5b806004015443108015610eec5750806005015443115b8015610efc575080600601544311155b1515610f0757600080fd5b600760003373ffffffffffffffffffffffffffffffffffffffff1673ffffffffffffffffffffffffffffffffffffffff16815260200190815260200160002060010160009054906101000a900460ff1680610fa3575060008160090160003373ffffffffffffffffffffffffffffffffffffffff1673ffffffffffffffffffffffffffffffffffffffff16815260200190815260200160002054115b1515610fae57600080fd5b80600b0160008473ffffffffffffffffffffffffffffffffffffffff1673ffffffffffffffffffffffffffffffffffffffff16815260200190815260200160002060020160009054906101000a900460ff16801561103857508273ffffffffffffffffffffffffffffffffffffffff163373ffffffffffffffffffffffffffffffffffffffff1614155b151561104357600080fd5b600181600b0160008573ffffffffffffffffffffffffffffffffffffffff1673ffffffffffffffffffffffffffffffffffffffff168152602001908152602001600020600101600082825401925050819055506110f08484600760003373ffffffffffffffffffffffffffffffffffffffff1673ffffffffffffffffffffffffffffffffffffffff16815260200190815260200160002060010160009054906101000a900460ff1661427c565b8273ffffffffffffffffffffffffffffffffffffffff163373ffffffffffffffffffffffffffffffffffffffff16857f3eb39bf09a967b24103c862ecf5070a50f3b20a80a64d1d0f80d4adc5833c96560405160405180910390a4600191505092915050565b600080600760003373ffffffffffffffffffffffffffffffffffffffff1673ffffffffffffffffffffffffffffffffffffffff16815260200190815260200160002060010160009054906101000a900460ff1615156111b457600080fd5b600160008781526020019081526020016000209050600060048111156111d657fe5b8160070160009054906101000a900460ff1660048111156111f357fe5b1415156111ff57600080fd5b838510801561120d57508284105b801561121d575080600401548310155b151561122857600080fd5b60018160070160006101000a81548160ff0219169083600481111561124957fe5b02179055508481600501819055508381600601819055508281600401819055503373ffffffffffffffffffffffffffffffffffffffff16867f6a7527c1127e57b7178d486b4702a1e61c216676962cbb55209b332a93f5b46687878760405180848152602001838152602001828152602001935050505060405180910390a36001915050949350505050565b6060600680548060200260200160405190810160405280929190818152602001828054801561135957602002820191906000526020600020905b8160009054906101000a900473ffffffffffffffffffffffffffffffffffffffff1673ffffffffffffffffffffffffffffffffffffffff168152602001906001019080831161130f575b5050505050905090565b600080600060016000868152602001908152602001600020905060008160090160008673ffffffffffffffffffffffffffffffffffffffff1673ffffffffffffffffffffffffffffffffffffffff1681526020019081526020016000205414156113d05760009250611419565b600192508060090160008573ffffffffffffffffffffffffffffffffffffffff1673ffffffffffffffffffffffffffffffffffffffff1681526020019081526020016000205491505b509250929050565b60026020528060005260406000206000915090505481565b600080600760003373ffffffffffffffffffffffffffffffffffffffff1673ffffffffffffffffffffffffffffffffffffffff16815260200190815260200160002060010160009054906101000a900460ff16151561149757600080fd5b600160008481526020019081526020016000209050600060048111156114b957fe5b8160070160009054906101000a900460ff1660048111156114d657fe5b1415156114e257600080fd5b60028160070160006101000a81548160ff0219169083600481111561150357fe5b02179055503373ffffffffffffffffffffffffffffffffffffffff16837ece63cc55966b103e4f4cb39f3426cb91718ad4f8eb4ad08c14a7ee749d815760405160405180910390a36001915050919050565b600081600260003373ffffffffffffffffffffffffffffffffffffffff1673ffffffffffffffffffffffffffffffffffffffff16815260200190815260200160002054101515156115a557600080fd5b600860009054906101000a900473ffffffffffffffffffffffffffffffffffffffff1673ffffffffffffffffffffffffffffffffffffffff1663a9059cbb33846040518363ffffffff167c0100000000000000000000000000000000000000000000000000000000028152600401808373ffffffffffffffffffffffffffffffffffffffff1673ffffffffffffffffffffffffffffffffffffffff16815260200182815260200192505050602060405180830381600087803b15801561166a57600080fd5b505af115801561167e573d6000803e3d6000fd5b505050506040513d602081101561169457600080fd5b810190808051906020019092919050505015156116b057600080fd5b61170282600260003373ffffffffffffffffffffffffffffffffffffffff1673ffffffffffffffffffffffffffffffffffffffff1681526020019081526020016000205461464f90919063ffffffff16565b600260003373ffffffffffffffffffffffffffffffffffffffff1673ffffffffffffffffffffffffffffffffffffffff1681526020019081526020016000208190555060019050919050565b60035481565b600061175e61469a565b84600260003373ffffffffffffffffffffffffffffffffffffffff1673ffffffffffffffffffffffffffffffffffffffff16815260200190815260200160002054101515156117ac57600080fd5b8060016000805481526020019081526020016000206000820151816000015560208201518160010160006101000a81548173ffffffffffffffffffffffffffffffffffffffff021916908373ffffffffffffffffffffffffffffffffffffffff16021790555060408201518160020155606082015181600301908051906020019061183892919061470f565b506080820151816004015560a0820151816005015560c0820151816006015560e08201518160070160006101000a81548160ff0219169083600481111561187b57fe5b021790555061010082015181600801908051906020019061189d92919061478f565b5061012082015181600a0190805190602001906118bb92919061478f565b5090505060005460016000805481526020019081526020016000206000018190555033600160008054815260200190815260200160002060010160006101000a81548173ffffffffffffffffffffffffffffffffffffffff021916908373ffffffffffffffffffffffffffffffffffffffff16021790555084600160008054815260200190815260200160002060020181905550826001600080548152602001908152602001600020600301908051906020019061197a929190614819565b50836001600080548152602001908152602001600020600401819055506000600160008054815260200190815260200160002060070160006101000a81548160ff021916908360048111156119cb57fe5b0217905550611a2285600260003373ffffffffffffffffffffffffffffffffffffffff1673ffffffffffffffffffffffffffffffffffffffff1681526020019081526020016000205461464f90919063ffffffff16565b600260003373ffffffffffffffffffffffffffffffffffffffff1673ffffffffffffffffffffffffffffffffffffffff1681526020019081526020016000208190555084600160008054815260200190815260200160002060090160003373ffffffffffffffffffffffffffffffffffffffff1673ffffffffffffffffffffffffffffffffffffffff1681526020019081526020016000208190555060016000805481526020019081526020016000206008013390806001815401808255809150509060018203906000526020600020016000909192909190916101000a81548173ffffffffffffffffffffffffffffffffffffffff021916908373ffffffffffffffffffffffffffffffffffffffff160217905550503373ffffffffffffffffffffffffffffffffffffffff167fe4940ae2b42ec040756a3ea4c2b2f4e85090b147982955e07be76d7be3036009600080815480929190600101919050558688876040518085815260200184815260200183815260200180602001828103825283818151815260200191508051906020019080838360005b83811015611bd6578082015181840152602081019050611bbb565b50505050905090810190601f168015611c035780820380516001836020036101000a031916815260200191505b509550505050505060405180910390a260019150509392505050565b60008082600260003373ffffffffffffffffffffffffffffffffffffffff1673ffffffffffffffffffffffffffffffffffffffff1681526020019081526020016000205410158015611c715750600083115b8015611c7f57506003548310155b1515611c8a57600080fd5b60016000858152602001908152602001600020905060016004811115611cac57fe5b8160070160009054906101000a900460ff166004811115611cc957fe5b1480611d57575060006004811115611cdd57fe5b8160070160009054906101000a900460ff166004811115611cfa57fe5b148015611d5657503373ffffffffffffffffffffffffffffffffffffffff168160010160009054906101000a900473ffffffffffffffffffffffffffffffffffffffff1673ffffffffffffffffffffffffffffffffffffffff16145b5b1515611d6257600080fd5b806004015443108015611d785750806006015443105b1515611d8357600080fd5b60045481600801805490501080611ddb575060008160090160003373ffffffffffffffffffffffffffffffffffffffff1673ffffffffffffffffffffffffffffffffffffffff16815260200190815260200160002054115b1515611de657600080fd5b611e3883600260003373ffffffffffffffffffffffffffffffffffffffff1673ffffffffffffffffffffffffffffffffffffffff1681526020019081526020016000205461464f90919063ffffffff16565b600260003373ffffffffffffffffffffffffffffffffffffffff1673ffffffffffffffffffffffffffffffffffffffff16815260200190815260200160002081905550611e9283826002015461466890919063ffffffff16565b816002018190555060008160090160003373ffffffffffffffffffffffffffffffffffffffff1673ffffffffffffffffffffffffffffffffffffffff168152602001908152602001600020541415611f4d57806008013390806001815401808255809150509060018203906000526020600020016000909192909190916101000a81548173ffffffffffffffffffffffffffffffffffffffff021916908373ffffffffffffffffffffffffffffffffffffffff160217905550505b611fa1838260090160003373ffffffffffffffffffffffffffffffffffffffff1673ffffffffffffffffffffffffffffffffffffffff1681526020019081526020016000205461466890919063ffffffff16565b8160090160003373ffffffffffffffffffffffffffffffffffffffff1673ffffffffffffffffffffffffffffffffffffffff168152602001908152602001600020819055503373ffffffffffffffffffffffffffffffffffffffff16847fe956662328c81b19ccd3d8666304be39ec1b5fa1e9f004554a5ffaf996011b11856040518082815260200191505060405180910390a3600191505092915050565b60045481565b60005481565b6000806001600084815260200190815260200160002090506000816002015411151561207757600080fd5b60008160090160003373ffffffffffffffffffffffffffffffffffffffff1673ffffffffffffffffffffffffffffffffffffffff168152602001908152602001600020541115156120c757600080fd5b8060040154431180156121015750600160048111156120e257fe5b8160070160009054906101000a900460ff1660048111156120ff57fe5b145b80612132575060048081111561211357fe5b8160070160009054906101000a900460ff16600481111561213057fe5b145b8061216457506002600481111561214557fe5b8160070160009054906101000a900460ff16600481111561216257fe5b145b151561216f57600080fd5b6122028160090160003373ffffffffffffffffffffffffffffffffffffffff1673ffffffffffffffffffffffffffffffffffffffff16815260200190815260200160002054600260003373ffffffffffffffffffffffffffffffffffffffff1673ffffffffffffffffffffffffffffffffffffffff1681526020019081526020016000205461466890919063ffffffff16565b600260003373ffffffffffffffffffffffffffffffffffffffff1673ffffffffffffffffffffffffffffffffffffffff1681526020019081526020016000208190555061229d8160090160003373ffffffffffffffffffffffffffffffffffffffff1673ffffffffffffffffffffffffffffffffffffffff16815260200190815260200160002054826002015461464f90919063ffffffff16565b816002018190555060008160090160003373ffffffffffffffffffffffffffffffffffffffff1673ffffffffffffffffffffffffffffffffffffffff168152602001908152602001600020819055506001915050919050565b60016020528060005260406000206000915090508060000154908060010160009054906101000a900473ffffffffffffffffffffffffffffffffffffffff1690806002015490806003018054600181600116156101000203166002900480601f0160208091040260200160405190810160405280929190818152602001828054600181600116156101000203166002900480156123d45780601f106123a9576101008083540402835291602001916123d4565b820191906000526020600020905b8154815290600101906020018083116123b757829003601f168201915b5050505050908060040154908060050154908060060154908060070160009054906101000a900460ff16905088565b60003373ffffffffffffffffffffffffffffffffffffffff16600560009054906101000a900473ffffffffffffffffffffffffffffffffffffffff1673ffffffffffffffffffffffffffffffffffffffff1614151561246157600080fd5b600073ffffffffffffffffffffffffffffffffffffffff168273ffffffffffffffffffffffffffffffffffffffff161415151561249d57600080fd5b81600560006101000a81548173ffffffffffffffffffffffffffffffffffffffff021916908373ffffffffffffffffffffffffffffffffffffffff16021790555060019050919050565b600560009054906101000a900473ffffffffffffffffffffffffffffffffffffffff1681565b60003373ffffffffffffffffffffffffffffffffffffffff16600560009054906101000a900473ffffffffffffffffffffffffffffffffffffffff1673ffffffffffffffffffffffffffffffffffffffff1614151561256b57600080fd5b82600381905550816004819055506001905092915050565b600061258d614899565b3373ffffffffffffffffffffffffffffffffffffffff16600560009054906101000a900473ffffffffffffffffffffffffffffffffffffffff1673ffffffffffffffffffffffffffffffffffffffff16148061268357506001600760003373ffffffffffffffffffffffffffffffffffffffff1673ffffffffffffffffffffffffffffffffffffffff168152602001908152602001600020600001541480156126825750600760003373ffffffffffffffffffffffffffffffffffffffff1673ffffffffffffffffffffffffffffffffffffffff16815260200190815260200160002060010160009054906101000a900460ff165b5b151561268e57600080fd5b600073ffffffffffffffffffffffffffffffffffffffff168573ffffffffffffffffffffffffffffffffffffffff16141515156126ca57600080fd5b60008414806126d95750600184145b15156126e457600080fd5b600760008673ffffffffffffffffffffffffffffffffffffffff1673ffffffffffffffffffffffffffffffffffffffff16815260200190815260200160002060010160019054906101000a900460ff1615156127a15760068590806001815401808255809150509060018203906000526020600020016000909192909190916101000a81548173ffffffffffffffffffffffffffffffffffffffff021916908373ffffffffffffffffffffffffffffffffffffffff160217905550505b80600760008773ffffffffffffffffffffffffffffffffffffffff1673ffffffffffffffffffffffffffffffffffffffff1681526020019081526020016000206000820151816000015560208201518160010160006101000a81548160ff02191690831515021790555060408201518160010160016101000a81548160ff02191690831515021790555090505083600760008773ffffffffffffffffffffffffffffffffffffffff1673ffffffffffffffffffffffffffffffffffffffff1681526020019081526020016000206000018190555082600760008773ffffffffffffffffffffffffffffffffffffffff1673ffffffffffffffffffffffffffffffffffffffff16815260200190815260200160002060010160006101000a81548160ff0219169083151502179055506001600760008773ffffffffffffffffffffffffffffffffffffffff1673ffffffffffffffffffffffffffffffffffffffff16815260200190815260200160002060010160016101000a81548160ff0219169083151502179055503373ffffffffffffffffffffffffffffffffffffffff168573ffffffffffffffffffffffffffffffffffffffff167f04bacb862a32831fafcf5025e9a32500574cb00a09743ee037a0d93f60f47063868660405180838152602001821515151581526020019250505060405180910390a360019150509392505050565b60076020528060005260406000206000915090508060000154908060010160009054906101000a900460ff16908060010160019054906101000a900460ff16905083565b6000806129f66148bf565b60016000868152602001908152602001600020915060016004811115612a1857fe5b8260070160009054906101000a900460ff166004811115612a3557fe5b141515612a4157600080fd5b816004015443108015612a58575081600501544311155b1515612a6357600080fd5b81600b0160003373ffffffffffffffffffffffffffffffffffffffff1673ffffffffffffffffffffffffffffffffffffffff16815260200190815260200160002060020160009054906101000a900460ff161515612b245781600a013390806001815401808255809150509060018203906000526020600020016000909192909190916101000a81548173ffffffffffffffffffffffffffffffffffffffff021916908373ffffffffffffffffffffffffffffffffffffffff160217905550505b8082600b0160003373ffffffffffffffffffffffffffffffffffffffff1673ffffffffffffffffffffffffffffffffffffffff1681526020019081526020016000206000820151816000019080519060200190612b8292919061470f565b506020820151816001015560408201518160020160006101000a81548160ff02191690831515021790555060608201518160020160016101000a81548160ff02191690831515021790555060808201518160020160026101000a81548160ff0219169083151502179055509050508382600b0160003373ffffffffffffffffffffffffffffffffffffffff1673ffffffffffffffffffffffffffffffffffffffff1681526020019081526020016000206000019080519060200190612c48929190614819565b50600182600b0160003373ffffffffffffffffffffffffffffffffffffffff1673ffffffffffffffffffffffffffffffffffffffff16815260200190815260200160002060020160006101000a81548160ff0219169083151502179055503373ffffffffffffffffffffffffffffffffffffffff16857f289c99c8edfb41417e57324d8994c839d5c6cddacca30c18b6d24047617e8b28866040518080602001828103825283818151815260200191508051906020019080838360005b83811015612d20578082015181840152602081019050612d05565b50505050905090810190601f168015612d4d5780820380516001836020036101000a031916815260200191505b509250505060405180910390a360019250505092915050565b6000600860009054906101000a900473ffffffffffffffffffffffffffffffffffffffff1673ffffffffffffffffffffffffffffffffffffffff166323b872dd3330856040518463ffffffff167c0100000000000000000000000000000000000000000000000000000000028152600401808473ffffffffffffffffffffffffffffffffffffffff1673ffffffffffffffffffffffffffffffffffffffff1681526020018373ffffffffffffffffffffffffffffffffffffffff1673ffffffffffffffffffffffffffffffffffffffff1681526020018281526020019350505050602060405180830381600087803b158015612e6157600080fd5b505af1158015612e75573d6000803e3d6000fd5b505050506040513d6020811015612e8b57600080fd5b81019080805190602001909291905050501515612f36576040517f08c379a00000000000000000000000000000000000000000000000000000000081526004018080602001828103825260288152602001807f556e61626c6520746f207472616e7366657220746f6b656e20746f207468652081526020017f636f6e747261637400000000000000000000000000000000000000000000000081525060400191505060405180910390fd5b612f8882600260003373ffffffffffffffffffffffffffffffffffffffff1673ffffffffffffffffffffffffffffffffffffffff1681526020019081526020016000205461466890919063ffffffff16565b600260003373ffffffffffffffffffffffffffffffffffffffff1673ffffffffffffffffffffffffffffffffffffffff1681526020019081526020016000208190555060019050919050565b612fde838361415a565b1515612fe957600080fd5b612ff38382611c1f565b1515612ffe57600080fd5b505050565b600060606000806000806000600160008a815260200190815260200160002090506000151581600b0160008a73ffffffffffffffffffffffffffffffffffffffff1673ffffffffffffffffffffffffffffffffffffffff16815260200190815260200160002060020160009054906101000a900460ff161515141561308b57600096506132b2565b6001965080600b0160008973ffffffffffffffffffffffffffffffffffffffff1673ffffffffffffffffffffffffffffffffffffffff1681526020019081526020016000206000018054600181600116156101000203166002900480601f0160208091040260200160405190810160405280929190818152602001828054600181600116156101000203166002900480156131675780601f1061313c57610100808354040283529160200191613167565b820191906000526020600020905b81548152906001019060200180831161314a57829003601f168201915b5050505050955080600b0160008973ffffffffffffffffffffffffffffffffffffffff1673ffffffffffffffffffffffffffffffffffffffff16815260200190815260200160002060010154945080600b0160008973ffffffffffffffffffffffffffffffffffffffff1673ffffffffffffffffffffffffffffffffffffffff16815260200190815260200160002060020160009054906101000a900460ff16935080600b0160008973ffffffffffffffffffffffffffffffffffffffff1673ffffffffffffffffffffffffffffffffffffffff16815260200190815260200160002060020160019054906101000a900460ff16925080600b0160008973ffffffffffffffffffffffffffffffffffffffff1673ffffffffffffffffffffffffffffffffffffffff16815260200190815260200160002060020160029054906101000a900460ff1691505b509295509295509295565b60008060008060606000806000806060806132d661469a565b600160008e81526020019081526020016000206101406040519081016040529081600082015481526020016001820160009054906101000a900473ffffffffffffffffffffffffffffffffffffffff1673ffffffffffffffffffffffffffffffffffffffff1673ffffffffffffffffffffffffffffffffffffffff16815260200160028201548152602001600382018054600181600116156101000203166002900480601f0160208091040260200160405190810160405280929190818152602001828054600181600116156101000203166002900480156133f95780601f106133ce576101008083540402835291602001916133f9565b820191906000526020600020905b8154815290600101906020018083116133dc57829003601f168201915b505050505081526020016004820154815260200160058201548152602001600682015481526020016007820160009054906101000a900460ff16600481111561343e57fe5b600481111561344957fe5b8152602001600882018054806020026020016040519081016040528092919081815260200182805480156134d257602002820191906000526020600020905b8160009054906101000a900473ffffffffffffffffffffffffffffffffffffffff1673ffffffffffffffffffffffffffffffffffffffff1681526020019060010190808311613488575b50505050508152602001600a820180548060200260200160405190810160405280929190818152602001828054801561356057602002820191906000526020600020905b8160009054906101000a900473ffffffffffffffffffffffffffffffffffffffff1673ffffffffffffffffffffffffffffffffffffffff1681526020019060010190808311613516575b5050505050815250509050600073ffffffffffffffffffffffffffffffffffffffff16816020015173ffffffffffffffffffffffffffffffffffffffff1614156135ad5760009b506135fa565b60019b5080600001519a50806020015199508060400151985080606001519750806080015196508060a0015195508060c0015194508060e001519350806101000151925080610120015191505b5091939597999b90929496989a50565b600080600080600080600080600160008a815260200190815260200160002091506001600481111561363857fe5b8260070160009054906101000a900460ff16600481111561365557fe5b148015613666575060008260020154115b151561367157600080fd5b8160060154431180156136875750816004015443105b151561369257600080fd5b81600b0160003373ffffffffffffffffffffffffffffffffffffffff1673ffffffffffffffffffffffffffffffffffffffff16815260200190815260200160002060020160009054906101000a900460ff16801561373f575081600b0160003373ffffffffffffffffffffffffffffffffffffffff1673ffffffffffffffffffffffffffffffffffffffff16815260200190815260200160002060020160029054906101000a900460ff16155b151561374a57600080fd5b81600c0160008073ffffffffffffffffffffffffffffffffffffffff1673ffffffffffffffffffffffffffffffffffffffff16815260200190815260200160002060008073ffffffffffffffffffffffffffffffffffffffff1673ffffffffffffffffffffffffffffffffffffffff168152602001908152602001600020549650600090505b8160080180549050811015613e36576000935081600801818154811015156137f457fe5b9060005260206000200160009054906101000a900473ffffffffffffffffffffffffffffffffffffffff1692508160090160008473ffffffffffffffffffffffffffffffffffffffff1673ffffffffffffffffffffffffffffffffffffffff1681526020019081526020016000205495506000861115613e2957600082600c0160008573ffffffffffffffffffffffffffffffffffffffff1673ffffffffffffffffffffffffffffffffffffffff16815260200190815260200160002060003373ffffffffffffffffffffffffffffffffffffffff1673ffffffffffffffffffffffffffffffffffffffff1681526020019081526020016000205411801561397a5750600082600c0160008573ffffffffffffffffffffffffffffffffffffffff1673ffffffffffffffffffffffffffffffffffffffff16815260200190815260200160002060008073ffffffffffffffffffffffffffffffffffffffff1673ffffffffffffffffffffffffffffffffffffffff16815260200190815260200160002054115b15613a9557613a8e82600c0160008573ffffffffffffffffffffffffffffffffffffffff1673ffffffffffffffffffffffffffffffffffffffff16815260200190815260200160002060008573ffffffffffffffffffffffffffffffffffffffff1673ffffffffffffffffffffffffffffffffffffffff1681526020019081526020016000205483600c0160008673ffffffffffffffffffffffffffffffffffffffff1673ffffffffffffffffffffffffffffffffffffffff16815260200190815260200160002060008073ffffffffffffffffffffffffffffffffffffffff1673ffffffffffffffffffffffffffffffffffffffff1681526020019081526020016000205461464f90919063ffffffff16565b9350613c47565b600087118015613b235750600082600c0160008073ffffffffffffffffffffffffffffffffffffffff1673ffffffffffffffffffffffffffffffffffffffff16815260200190815260200160002060003373ffffffffffffffffffffffffffffffffffffffff1673ffffffffffffffffffffffffffffffffffffffff16815260200190815260200160002054115b8015613bad5750600082600c0160008573ffffffffffffffffffffffffffffffffffffffff1673ffffffffffffffffffffffffffffffffffffffff16815260200190815260200160002060008073ffffffffffffffffffffffffffffffffffffffff1673ffffffffffffffffffffffffffffffffffffffff16815260200190815260200160002054145b15613c4657613c4382600c0160008573ffffffffffffffffffffffffffffffffffffffff1673ffffffffffffffffffffffffffffffffffffffff16815260200190815260200160002060008573ffffffffffffffffffffffffffffffffffffffff1673ffffffffffffffffffffffffffffffffffffffff168152602001908152602001600020548861464f90919063ffffffff16565b93505b5b6000841115613e2857613c63848761468490919063ffffffff16565b9550613cb9868360090160008673ffffffffffffffffffffffffffffffffffffffff1673ffffffffffffffffffffffffffffffffffffffff1681526020019081526020016000205461464f90919063ffffffff16565b8260090160008573ffffffffffffffffffffffffffffffffffffffff1673ffffffffffffffffffffffffffffffffffffffff16815260200190815260200160002081905550613d11868661466890919063ffffffff16565b9450613da5600183600c0160008673ffffffffffffffffffffffffffffffffffffffff1673ffffffffffffffffffffffffffffffffffffffff16815260200190815260200160002060008673ffffffffffffffffffffffffffffffffffffffff1673ffffffffffffffffffffffffffffffffffffffff1681526020019081526020016000205461466890919063ffffffff16565b82600c0160008573ffffffffffffffffffffffffffffffffffffffff1673ffffffffffffffffffffffffffffffffffffffff16815260200190815260200160002060008573ffffffffffffffffffffffffffffffffffffffff1673ffffffffffffffffffffffffffffffffffffffff168152602001908152602001600020819055505b5b80806001019150506137d0565b613e4d85836002015461464f90919063ffffffff16565b8260020181905550613ea785600260003373ffffffffffffffffffffffffffffffffffffffff1673ffffffffffffffffffffffffffffffffffffffff1681526020019081526020016000205461466890919063ffffffff16565b600260003373ffffffffffffffffffffffffffffffffffffffff1673ffffffffffffffffffffffffffffffffffffffff16815260200190815260200160002081905550600182600b0160003373ffffffffffffffffffffffffffffffffffffffff1673ffffffffffffffffffffffffffffffffffffffff16815260200190815260200160002060020160026101000a81548160ff0219169083151502179055503373ffffffffffffffffffffffffffffffffffffffff16897fa77334abceb70f6b14676b12b5f95ea51e94727165c2ef31d7c4bbffb0d6c633876040518082815260200191505060405180910390a36001975050505050505050919050565b600080600760003373ffffffffffffffffffffffffffffffffffffffff1673ffffffffffffffffffffffffffffffffffffffff16815260200190815260200160002060010160009054906101000a900460ff16151561400457600080fd5b6001600084815260200190815260200160002090506001600481111561402657fe5b8160070160009054906101000a900460ff16600481111561404357fe5b14151561404f57600080fd5b60048160070160006101000a81548160ff0219169083600481111561407057fe5b02179055503373ffffffffffffffffffffffffffffffffffffffff16837f33e0ef9a1b13c585505b41f1828c57935eb2a491b550de25345243e25d20b9bf60405160405180910390a350919050565b6006818154811015156140ce57fe5b906000526020600020016000915054906101000a900473ffffffffffffffffffffffffffffffffffffffff1681565b600061410884612d66565b151561411357600080fd5b61411e848484611754565b151561412957600080fd5b600190509392505050565b600860009054906101000a900473ffffffffffffffffffffffffffffffffffffffff1681565b6000806001600085815260200190815260200160002090508060010160009054906101000a900473ffffffffffffffffffffffffffffffffffffffff1673ffffffffffffffffffffffffffffffffffffffff163373ffffffffffffffffffffffffffffffffffffffff161415156141d057600080fd5b600060048111156141dd57fe5b8160070160009054906101000a900460ff1660048111156141fa57fe5b14151561420657600080fd5b8060040154831015151561421957600080fd5b8281600401819055503373ffffffffffffffffffffffffffffffffffffffff16847fbbc4dd3bce62c5b771c77df4171d005b37753117e94003de29886c3debb1ccf0856040518082815260200191505060405180910390a3600191505092915050565b60006001600085815260200190815260200160002090508180156142ef575080600b0160008473ffffffffffffffffffffffffffffffffffffffff1673ffffffffffffffffffffffffffffffffffffffff16815260200190815260200160002060020160019054906101000a900460ff16155b1561446357600181600c0160008073ffffffffffffffffffffffffffffffffffffffff1673ffffffffffffffffffffffffffffffffffffffff16815260200190815260200160002060008073ffffffffffffffffffffffffffffffffffffffff1673ffffffffffffffffffffffffffffffffffffffff16815260200190815260200160002060008282540192505081905550600181600c0160008073ffffffffffffffffffffffffffffffffffffffff1673ffffffffffffffffffffffffffffffffffffffff16815260200190815260200160002060008573ffffffffffffffffffffffffffffffffffffffff1673ffffffffffffffffffffffffffffffffffffffff16815260200190815260200160002081905550600181600b0160008573ffffffffffffffffffffffffffffffffffffffff1673ffffffffffffffffffffffffffffffffffffffff16815260200190815260200160002060020160016101000a81548160ff0219169083151502179055505b60008160090160003373ffffffffffffffffffffffffffffffffffffffff1673ffffffffffffffffffffffffffffffffffffffff168152602001908152602001600020541180156145325750600081600c0160003373ffffffffffffffffffffffffffffffffffffffff1673ffffffffffffffffffffffffffffffffffffffff16815260200190815260200160002060008573ffffffffffffffffffffffffffffffffffffffff1673ffffffffffffffffffffffffffffffffffffffff16815260200190815260200160002054145b1561464957600181600c0160003373ffffffffffffffffffffffffffffffffffffffff1673ffffffffffffffffffffffffffffffffffffffff16815260200190815260200160002060008073ffffffffffffffffffffffffffffffffffffffff1673ffffffffffffffffffffffffffffffffffffffff16815260200190815260200160002060008282540192505081905550600181600c0160003373ffffffffffffffffffffffffffffffffffffffff1673ffffffffffffffffffffffffffffffffffffffff16815260200190815260200160002060008573ffffffffffffffffffffffffffffffffffffffff1673ffffffffffffffffffffffffffffffffffffffff168152602001908152602001600020819055505b50505050565b600082821115151561465d57fe5b818303905092915050565b6000818301905082811015151561467b57fe5b80905092915050565b6000818381151561469157fe5b04905092915050565b6101406040519081016040528060008152602001600073ffffffffffffffffffffffffffffffffffffffff1681526020016000815260200160608152602001600081526020016000815260200160008152602001600060048111156146fb57fe5b815260200160608152602001606081525090565b828054600181600116156101000203166002900490600052602060002090601f016020900481019282601f1061475057805160ff191683800117855561477e565b8280016001018555821561477e579182015b8281111561477d578251825591602001919060010190614762565b5b50905061478b91906148f5565b5090565b828054828255906000526020600020908101928215614808579160200282015b828111156148075782518260006101000a81548173ffffffffffffffffffffffffffffffffffffffff021916908373ffffffffffffffffffffffffffffffffffffffff160217905550916020019190600101906147af565b5b509050614815919061491a565b5090565b828054600181600116156101000203166002900490600052602060002090601f016020900481019282601f1061485a57805160ff1916838001178555614888565b82800160010185558215614888579182015b8281111561488757825182559160200191906001019061486c565b5b50905061489591906148f5565b5090565b606060405190810160405280600081526020016000151581526020016000151581525090565b60a06040519081016040528060608152602001600081526020016000151581526020016000151581526020016000151581525090565b61491791905b808211156149135760008160009055506001016148fb565b5090565b90565b61495a91905b8082111561495657600081816101000a81549073ffffffffffffffffffffffffffffffffffffffff021916905550600101614920565b5090565b905600a165627a7a7230582041a34d6ecf42ff7b046cdbe82c91fa411997a3cb610fbfb2b6a5c19461e609680029",
  "source": "pragma solidity ^0.4.24;\r\n\r\nimport \"openzeppelin-solidity/contracts/token/ERC20/ERC20.sol\";\r\nimport \"openzeppelin-solidity/contracts/math/SafeMath.sol\";\r\n\r\ncontract ServiceRequest {\r\n    \r\n    using SafeMath for uint256;\r\n    \r\n    struct Request {\r\n        uint256 requestId;\r\n        address requester;\r\n        uint256 totalFund;\r\n        bytes documentURI;\r\n        \r\n        uint256 expiration;\r\n        uint256 endSubmission;\r\n        uint256 endEvaluation;\r\n        \r\n        RequestStatus status;\r\n        \r\n        address[] stakeMembers;\r\n        mapping(address => uint256) funds;\r\n        \r\n        address[] submitters;\r\n        mapping(address => Solution) submittedSols;\r\n        \r\n        mapping(address => mapping(address => uint256)) votes;\r\n    }\r\n\r\n    // Open -> Rejected\r\n    // Open -> Approved -> Completed (TODO: Yet to get the logic for completed state - checking it is needed)\r\n    // Open -> Approved -> Closed\r\n    enum RequestStatus { Open, Approved, Rejected, Completed, Closed }\r\n    \r\n    struct Solution {\r\n        bytes solutionDocURI;\r\n        uint256 totalVotes;\r\n        \r\n        bool isSubmitted;\r\n        bool isShortlisted;\r\n        bool isClaimed;\r\n    }\r\n    \r\n    uint256 public nextRequestId;\r\n    mapping (uint256 => Request) public requests;\r\n    mapping (address => uint256) public balances;\r\n    \r\n    uint256 public minStake;\r\n    uint256 public maxStakers;\r\n\r\n    address public owner;\r\n    \r\n    address[] public memberKeys;\r\n    struct Member {\r\n        uint role; // 0-Normal member, 1-> Admin Member who can add other members\r\n        bool status; // True -> Active, False -> InActive/Deleted\r\n        bool exists; // To check the existstance of the Member\r\n    }\r\n    mapping(address => Member) public foundationMembers;\r\n \r\n    ERC20 public token; // Address of token contract\r\n    \r\n\r\n    // Events\r\n    event AddFoundationMember(address indexed member, uint role, bool status, address indexed actor);\r\n    event CreateRequest(uint256 requestId, address indexed requester, uint256 expiration, uint256 amount, bytes documentURI);\r\n    event ExtendRequest(uint256 indexed requestId, address indexed requester, uint256 expiration);\r\n    event ApproveRequest(uint256 indexed requestId, address indexed approver, uint256 endSubmission, uint256 endEvaluation, uint256 expiration);\r\n    event FundRequest(uint256 indexed requestId, address indexed staker, uint256 amount);\r\n    event AddSolutionRequest(uint256 indexed requestId, address indexed submitter, bytes solutionDocURI);\r\n    event VoteRequest(uint256 indexed requestId, address indexed voter, address indexed submitter);\r\n    event ClaimRequest(uint256 indexed requestId, address indexed submitter, uint256 amount);\r\n    event CloseRequest(uint256 indexed requestId, address indexed actor);\r\n    event RejectRequest(uint256 indexed requestId, address indexed actor);\r\n\r\n    constructor (address _token, uint256 _minStake, uint256 _maxStakers)\r\n    public\r\n    {\r\n        token = ERC20(_token);\r\n        owner = msg.sender;\r\n        nextRequestId = 0;\r\n        minStake = _minStake;\r\n        maxStakers = _maxStakers;\r\n    }\r\n  \r\n    function deposit(uint256 value) \r\n    public\r\n    returns(bool) \r\n    {\r\n        require(token.transferFrom(msg.sender, this, value), \"Unable to transfer token to the contract\"); \r\n        balances[msg.sender] = balances[msg.sender].add(value);\r\n        return true;\r\n    }\r\n    \r\n    function withdraw(uint256 value)\r\n    public\r\n    returns(bool)\r\n    {\r\n        require(balances[msg.sender] >= value);\r\n        require(token.transfer(msg.sender, value));\r\n        balances[msg.sender] = balances[msg.sender].sub(value);\r\n        return true;\r\n    }\r\n    \r\n    function updateOwner(address newOwner) public returns(bool) {\r\n        require(owner == msg.sender);\r\n        require(newOwner != address(0));\r\n        \r\n        owner = newOwner;\r\n        \r\n        return true;\r\n    }\r\n\r\n    function updateLimits(uint256 _minStake, uint256 _maxStakers) public returns(bool) {\r\n        require(owner == msg.sender);\r\n        minStake = _minStake;\r\n        maxStakers = _maxStakers;\r\n        return true;\r\n    }\r\n    \r\n    function addOrUpdateFoundationMembers(address member, uint role, bool active) public returns (bool) {\r\n        \r\n        require(owner == msg.sender || (foundationMembers[msg.sender].role == 1 && foundationMembers[msg.sender].status));\r\n        require(member != address(0));\r\n        require(role == 0 || role == 1);\r\n        \r\n        Member memory mem;\r\n        if(!foundationMembers[member].exists) {\r\n            memberKeys.push(member);\r\n        }\r\n        foundationMembers[member] = mem;\r\n        foundationMembers[member].role = role;\r\n        foundationMembers[member].status = active;\r\n        foundationMembers[member].exists = true;\r\n        \r\n        emit AddFoundationMember(member, role, active, msg.sender);\r\n\r\n        return true;\r\n    }\r\n    \r\n    function createRequest(uint256 value, uint256 expiration, bytes documentURI) \r\n    public\r\n    returns(bool) \r\n    {\r\n        require(balances[msg.sender] >= value);\r\n        \r\n        Request memory req;\r\n        requests[nextRequestId] = req;\r\n        \r\n        requests[nextRequestId].requestId = nextRequestId;\r\n        requests[nextRequestId].requester = msg.sender;\r\n        requests[nextRequestId].totalFund = value;\r\n        requests[nextRequestId].documentURI = documentURI;\r\n        requests[nextRequestId].expiration = expiration;\r\n        requests[nextRequestId].status = RequestStatus.Open;\r\n\r\n        balances[msg.sender] = balances[msg.sender].sub(value);\r\n\r\n        requests[nextRequestId].funds[msg.sender] = value;\r\n        requests[nextRequestId].stakeMembers.push(msg.sender);\r\n        \r\n        emit CreateRequest(nextRequestId++, msg.sender, expiration, value, documentURI);\r\n\r\n        return true;\r\n    }\r\n\r\n    function depositAndCreateRequest(uint256 value, uint256 expiration, bytes documentURI)\r\n    public\r\n    returns(bool)\r\n    {\r\n        require(deposit(value));\r\n        require(createRequest(value, expiration, documentURI));\r\n        return true;\r\n    }\r\n\r\n\r\n    /// the sender can extend the expiration of the request at any time\r\n    function extendRequest(uint256 requestId, uint256 newExpiration) \r\n    public \r\n    returns(bool)\r\n    {\r\n        Request storage req = requests[requestId];\r\n\r\n        require(msg.sender == req.requester);\r\n        require(req.status == RequestStatus.Open);\r\n        require(newExpiration >= req.expiration);\r\n\r\n        req.expiration = newExpiration;\r\n\r\n        emit ExtendRequest(requestId, msg.sender, newExpiration);\r\n\r\n        return true;\r\n    }\r\n    \r\n    // Anyone could add funds to the service request\r\n    function addFundsToRequest(uint256 requestId, uint256 amount)\r\n    public\r\n    returns(bool)\r\n    {\r\n        require(balances[msg.sender] >= amount && amount > 0 && amount >= minStake);\r\n        \r\n        Request storage req = requests[requestId];\r\n        \r\n        // Request should be Approved - Means in Progress\r\n        require(req.status == RequestStatus.Approved || (req.status == RequestStatus.Open && req.requester == msg.sender));\r\n        \r\n        // Request should not be expired\r\n        require(block.number < req.expiration && block.number < req.endEvaluation);\r\n\r\n        // Check for Max Stakers only for new stake \r\n        require(req.stakeMembers.length < maxStakers || req.funds[msg.sender] > 0);\r\n\r\n        //tranfser amount from sender to the Service Request\r\n        balances[msg.sender] = balances[msg.sender].sub(amount);\r\n        req.totalFund = req.totalFund.add(amount);\r\n        \r\n        // Adding funds first time check\r\n        if(req.funds[msg.sender] == 0){\r\n            req.stakeMembers.push(msg.sender);\r\n        } // else member already exists\r\n\r\n        //Update the respective request funds\r\n        req.funds[msg.sender] = req.funds[msg.sender].add(amount);\r\n        \r\n        emit FundRequest(requestId, msg.sender, amount);\r\n\r\n        return true;\r\n    }\r\n\r\n    function extendAndAddFundsToRequest(uint256 requestId, uint256 newExpiration, uint256 amount)\r\n    public\r\n    {\r\n        require(extendRequest(requestId, newExpiration));\r\n        require(addFundsToRequest(requestId, amount));\r\n    }\r\n    \r\n    function approveRequest(uint256 requestId, uint256 endSubmission, uint256 endEvaluation, uint256 newExpiration) public returns(bool) {\r\n        \r\n        // Should be foundation Member\r\n        require(foundationMembers[msg.sender].status);\r\n        \r\n        Request storage req = requests[requestId];\r\n        \r\n        // Request should be active\r\n        require(req.status == RequestStatus.Open);\r\n        \r\n        // Request should not be expired -- We should allow this\r\n        //require(req.expiration > block.number);\r\n        require(endSubmission < endEvaluation && endEvaluation < newExpiration && newExpiration >= req.expiration );\r\n        \r\n        req.status = RequestStatus.Approved;\r\n        req.endSubmission = endSubmission;\r\n        req.endEvaluation = endEvaluation;\r\n        req.expiration = newExpiration;\r\n        \r\n        emit ApproveRequest(requestId, msg.sender, endSubmission, endEvaluation, newExpiration);\r\n\r\n        return true;\r\n    }\r\n    \r\n    function rejectRequest(uint256 requestId) public returns(bool) {\r\n        \r\n        // Should be foundation Member\r\n        require(foundationMembers[msg.sender].status);\r\n        \r\n        Request storage req = requests[requestId];\r\n        \r\n        // Request should be active\r\n        require(req.status == RequestStatus.Open);\r\n        \r\n        // Change the status of the Request to Rejected\r\n        req.status = RequestStatus.Rejected;\r\n\r\n        emit RejectRequest(requestId, msg.sender);\r\n\r\n        return true;\r\n    }\r\n\r\n    function closeRequest(uint256 requestId) public returns(bool) {\r\n        \r\n        // Should be ative foundation Member\r\n        require(foundationMembers[msg.sender].status);\r\n        \r\n        Request storage req = requests[requestId];\r\n        \r\n        // Request should be active\r\n        require(req.status == RequestStatus.Approved);  \r\n        \r\n        // Change the status of the Request to Closed\r\n        req.status = RequestStatus.Closed;\r\n        \r\n        emit CloseRequest(requestId, msg.sender);\r\n    }\r\n    \r\n    function createOrUpdateSolutionProposal(uint256 requestId, bytes solutionDocURI)\r\n    public\r\n    returns(bool)\r\n    {\r\n        Request storage req = requests[requestId];\r\n\r\n        // Request should be active\r\n        require(req.status == RequestStatus.Approved);\r\n        \r\n        // Request should not be expired\r\n        require(block.number < req.expiration && block.number <= req.endSubmission);\r\n        \r\n        Solution memory sol;\r\n\r\n        // Check if already user submitted the solution\r\n        if(!req.submittedSols[msg.sender].isSubmitted) {\r\n            req.submitters.push(msg.sender);\r\n        }\r\n        // Create or Update the Submitted Solution\r\n        req.submittedSols[msg.sender] = sol;\r\n        req.submittedSols[msg.sender].solutionDocURI = solutionDocURI;\r\n        req.submittedSols[msg.sender].isSubmitted = true;\r\n        \r\n        emit AddSolutionRequest(requestId, msg.sender, solutionDocURI);\r\n\r\n        return true;\r\n        \r\n    }\r\n\r\n    // Only users who has stake can vote\r\n    // Foundation members can vote => Shortlist\r\n    function vote(uint256 requestId, address solutionSubmitter) public returns (bool) {\r\n        \r\n        Request storage req = requests[requestId];\r\n        \r\n        // Request should be active\r\n        require(req.status == RequestStatus.Approved);\r\n        \r\n        // Request should not be expired\r\n        require(block.number < req.expiration && block.number > req.endSubmission && block.number <= req.endEvaluation);\r\n        \r\n        // Should be foundation Member or Staking Member to Vote\r\n        require(foundationMembers[msg.sender].status || req.funds[msg.sender] > 0);\r\n        \r\n        // Check for solution Submitter status and cannot for own submission\r\n        require(req.submittedSols[solutionSubmitter].isSubmitted && msg.sender != solutionSubmitter);\r\n        \r\n        req.submittedSols[solutionSubmitter].totalVotes += 1;\r\n        \r\n        submitVote(requestId, solutionSubmitter, foundationMembers[msg.sender].status);\r\n        \r\n        emit VoteRequest(requestId, msg.sender, solutionSubmitter);\r\n        \r\n        return true;\r\n    }\r\n\r\n    function submitVote(uint256 requestId, address solutionSubmitter, bool isFromFoundation) \r\n    internal \r\n    {\r\n        \r\n        Request storage req = requests[requestId];\r\n\r\n        if(isFromFoundation && !req.submittedSols[solutionSubmitter].isShortlisted) {\r\n            // 0x0 contains foundation shortlisted solutions\r\n            req.votes[address(0)][address(0)] += 1;\r\n            req.votes[address(0)][solutionSubmitter] = 1;\r\n            req.submittedSols[solutionSubmitter].isShortlisted = true;\r\n        }\r\n        \r\n        if(req.funds[msg.sender] > 0 && req.votes[msg.sender][solutionSubmitter] == 0)\r\n        {\r\n            req.votes[msg.sender][address(0)] += 1;\r\n            req.votes[msg.sender][solutionSubmitter] = 1;\r\n        }\r\n    }\r\n    \r\n    function requestClaimBack(uint256 requestId) public returns (bool) {\r\n\r\n        Request storage req = requests[requestId];\r\n        \r\n        // Request should have funds\r\n        require(req.totalFund > 0);\r\n\r\n        // Should have stake\r\n        require(req.funds[msg.sender] > 0);\r\n\r\n        // Approved request should be expiried or Request is closed / rejected\r\n        require((block.number > req.expiration && req.status == RequestStatus.Approved) || req.status == RequestStatus.Closed || req.status == RequestStatus.Rejected);\r\n        \r\n        balances[msg.sender] = balances[msg.sender].add(req.funds[msg.sender]);\r\n        req.totalFund = req.totalFund.sub(req.funds[msg.sender]);\r\n        req.funds[msg.sender] = 0;\r\n        \r\n        return true;\r\n    }\r\n\r\n    function requestClaim(uint256 requestId) \r\n    public\r\n    returns (bool)\r\n    {\r\n        uint256 fundationVotes;\r\n        uint256 userStake;\r\n        uint256 totalClaim;\r\n        uint256 userVotes;\r\n        address stakeMember;\r\n        Request storage req = requests[requestId];\r\n        \r\n        // Request should be active and should have funds\r\n        require(req.status == RequestStatus.Approved && req.totalFund > 0);\r\n        \r\n        // Request should complete the eveluation and should not expire\r\n        require(block.number > req.endEvaluation && block.number < req.expiration);\r\n        \r\n        // Should be Solution Submitter Only and should have atleast one vote\r\n        require(req.submittedSols[msg.sender].isSubmitted && !req.submittedSols[msg.sender].isClaimed);\r\n        \r\n        fundationVotes = req.votes[address(0)][address(0)];\r\n        for(uint256 i=0; i<req.stakeMembers.length;i++) {\r\n            userVotes = 0;\r\n            stakeMember = req.stakeMembers[i];\r\n            userStake = req.funds[stakeMember];\r\n\r\n            if(userStake > 0) {\r\n                if(req.votes[stakeMember][msg.sender] > 0 && req.votes[stakeMember][address(0)] > 0) {\r\n                    userVotes = req.votes[stakeMember][address(0)].sub(req.votes[stakeMember][stakeMember]);\r\n                }\r\n                else if(fundationVotes > 0 && req.votes[address(0)][msg.sender] > 0 && req.votes[stakeMember][address(0)] == 0) {\r\n                    userVotes = fundationVotes.sub(req.votes[stakeMember][stakeMember]);               \r\n                }\r\n                if(userVotes > 0) {\r\n                    userStake = userStake.div(userVotes);\r\n                    req.funds[stakeMember] = req.funds[stakeMember].sub(userStake);\r\n                    totalClaim = totalClaim.add(userStake);\r\n                    req.votes[stakeMember][stakeMember] = req.votes[stakeMember][stakeMember].add(1);\r\n                }\r\n            }\r\n        }\r\n        \r\n        req.totalFund = req.totalFund.sub(totalClaim);\r\n        balances[msg.sender] = balances[msg.sender].add(totalClaim);\r\n        req.submittedSols[msg.sender].isClaimed = true;\r\n\r\n        emit ClaimRequest(requestId, msg.sender, totalClaim);\r\n        \r\n        return true;\r\n    }\r\n\r\n\r\n    // Getters\r\n    function getFoundationMemberKeys() public view returns (address[]) {\r\n        return memberKeys;\r\n    }\r\n\r\n    function getServiceRequestById(uint256 reqId) public view \r\n    returns (bool found, uint256 requestId, address requester, uint256 totalFund, bytes documentURI, uint256 expiration, uint256 endSubmission, uint256 endEvaluation, RequestStatus status, address[] stakeMembers, address[] submitters) \r\n    {\r\n        Request memory req = requests[reqId];\r\n\r\n        if(req.requester == address(0)) {\r\n            found = false;\r\n            return;\r\n        }\r\n\r\n        found = true;\r\n        requestId = req.requestId;\r\n        requester = req.requester; \r\n        totalFund = req.totalFund; \r\n        documentURI = req.documentURI; \r\n        expiration = req.expiration; \r\n        endSubmission = req.endSubmission;\r\n        endEvaluation = req.endEvaluation; \r\n        status = req.status; \r\n        stakeMembers = req.stakeMembers; \r\n        submitters = req.submitters;\r\n    }\r\n\r\n    function getSubmittedSolutionById(uint256 requestId, address submitter) public view \r\n    returns (bool found, bytes solutionDocURI, uint256 totalVotes, bool isSubmitted, bool isShortlisted, bool isClaimed)\r\n    {\r\n        Request storage req = requests[requestId];\r\n\r\n        if(req.submittedSols[submitter].isSubmitted == false) {\r\n            found = false;\r\n            return;\r\n        }\r\n\r\n        found = true;\r\n        solutionDocURI = req.submittedSols[submitter].solutionDocURI;\r\n        totalVotes = req.submittedSols[submitter].totalVotes;\r\n        isSubmitted = req.submittedSols[submitter].isSubmitted;\r\n        isShortlisted =  req.submittedSols[submitter].isShortlisted;\r\n        isClaimed = req.submittedSols[submitter].isClaimed;\r\n\r\n    }\r\n\r\n    function getStakeById(uint256 requestId, address staker) public view \r\n    returns (bool found, uint256 stake)\r\n    {\r\n        Request storage req = requests[requestId];\r\n        if(req.funds[staker] == 0) {\r\n            found = false;\r\n            return;\r\n        }\r\n        found = true;\r\n        stake = req.funds[staker];\r\n\r\n    }\r\n  \r\n}",
  "sourcePath": "C:\\MyProjects\\BlockchainSamples\\DrizzleSample\\drizzle-box-master\\contracts\\ServiceRequest.sol",
  "compiler": {
    "name": "solc",
    "version": "0.4.24+commit.e67f0147.Emscripten.clang"
  },
  "schemaVersion": "2.0.1",
  "updatedAt": "2019-02-18T03:23:41.301Z"
}