{
  "contractName": "SingularityNetToken",
  "abi": [
    {
      "constant": true,
      "inputs": [],
      "name": "name",
      "outputs": [
        {
          "name": "",
          "type": "string"
        }
      ],
      "payable": false,
      "stateMutability": "view",
      "type": "function"
    },
    {
      "constant": false,
      "inputs": [
        {
          "name": "_spender",
          "type": "address"
        },
        {
          "name": "_value",
          "type": "uint256"
        }
      ],
      "name": "approve",
      "outputs": [
        {
          "name": "",
          "type": "bool"
        }
      ],
      "payable": false,
      "stateMutability": "nonpayable",
      "type": "function"
    },
    {
      "constant": true,
      "inputs": [],
      "name": "totalSupply",
      "outputs": [
        {
          "name": "",
          "type": "uint256"
        }
      ],
      "payable": false,
      "stateMutability": "view",
      "type": "function"
    },
    {
      "constant": false,
      "inputs": [
        {
          "name": "_from",
          "type": "address"
        },
        {
          "name": "_to",
          "type": "address"
        },
        {
          "name": "_value",
          "type": "uint256"
        }
      ],
      "name": "transferFrom",
      "outputs": [
        {
          "name": "",
          "type": "bool"
        }
      ],
      "payable": false,
      "stateMutability": "nonpayable",
      "type": "function"
    },
    {
      "constant": true,
      "inputs": [],
      "name": "INITIAL_SUPPLY",
      "outputs": [
        {
          "name": "",
          "type": "uint256"
        }
      ],
      "payable": false,
      "stateMutability": "view",
      "type": "function"
    },
    {
      "constant": true,
      "inputs": [],
      "name": "decimals",
      "outputs": [
        {
          "name": "",
          "type": "uint8"
        }
      ],
      "payable": false,
      "stateMutability": "view",
      "type": "function"
    },
    {
      "constant": false,
      "inputs": [],
      "name": "unpause",
      "outputs": [],
      "payable": false,
      "stateMutability": "nonpayable",
      "type": "function"
    },
    {
      "constant": false,
      "inputs": [
        {
          "name": "_value",
          "type": "uint256"
        }
      ],
      "name": "burn",
      "outputs": [],
      "payable": false,
      "stateMutability": "nonpayable",
      "type": "function"
    },
    {
      "constant": true,
      "inputs": [],
      "name": "paused",
      "outputs": [
        {
          "name": "",
          "type": "bool"
        }
      ],
      "payable": false,
      "stateMutability": "view",
      "type": "function"
    },
    {
      "constant": false,
      "inputs": [
        {
          "name": "_spender",
          "type": "address"
        },
        {
          "name": "_subtractedValue",
          "type": "uint256"
        }
      ],
      "name": "decreaseApproval",
      "outputs": [
        {
          "name": "success",
          "type": "bool"
        }
      ],
      "payable": false,
      "stateMutability": "nonpayable",
      "type": "function"
    },
    {
      "constant": true,
      "inputs": [
        {
          "name": "_owner",
          "type": "address"
        }
      ],
      "name": "balanceOf",
      "outputs": [
        {
          "name": "balance",
          "type": "uint256"
        }
      ],
      "payable": false,
      "stateMutability": "view",
      "type": "function"
    },
    {
      "constant": false,
      "inputs": [],
      "name": "pause",
      "outputs": [],
      "payable": false,
      "stateMutability": "nonpayable",
      "type": "function"
    },
    {
      "constant": true,
      "inputs": [],
      "name": "owner",
      "outputs": [
        {
          "name": "",
          "type": "address"
        }
      ],
      "payable": false,
      "stateMutability": "view",
      "type": "function"
    },
    {
      "constant": true,
      "inputs": [],
      "name": "symbol",
      "outputs": [
        {
          "name": "",
          "type": "string"
        }
      ],
      "payable": false,
      "stateMutability": "view",
      "type": "function"
    },
    {
      "constant": false,
      "inputs": [
        {
          "name": "_to",
          "type": "address"
        },
        {
          "name": "_value",
          "type": "uint256"
        }
      ],
      "name": "transfer",
      "outputs": [
        {
          "name": "",
          "type": "bool"
        }
      ],
      "payable": false,
      "stateMutability": "nonpayable",
      "type": "function"
    },
    {
      "constant": false,
      "inputs": [
        {
          "name": "_spender",
          "type": "address"
        },
        {
          "name": "_addedValue",
          "type": "uint256"
        }
      ],
      "name": "increaseApproval",
      "outputs": [
        {
          "name": "success",
          "type": "bool"
        }
      ],
      "payable": false,
      "stateMutability": "nonpayable",
      "type": "function"
    },
    {
      "constant": true,
      "inputs": [
        {
          "name": "_owner",
          "type": "address"
        },
        {
          "name": "_spender",
          "type": "address"
        }
      ],
      "name": "allowance",
      "outputs": [
        {
          "name": "",
          "type": "uint256"
        }
      ],
      "payable": false,
      "stateMutability": "view",
      "type": "function"
    },
    {
      "constant": false,
      "inputs": [
        {
          "name": "newOwner",
          "type": "address"
        }
      ],
      "name": "transferOwnership",
      "outputs": [],
      "payable": false,
      "stateMutability": "nonpayable",
      "type": "function"
    },
    {
      "inputs": [],
      "payable": false,
      "stateMutability": "nonpayable",
      "type": "constructor"
    },
    {
      "anonymous": false,
      "inputs": [
        {
          "indexed": true,
          "name": "burner",
          "type": "address"
        },
        {
          "indexed": false,
          "name": "value",
          "type": "uint256"
        }
      ],
      "name": "Burn",
      "type": "event"
    },
    {
      "anonymous": false,
      "inputs": [],
      "name": "Pause",
      "type": "event"
    },
    {
      "anonymous": false,
      "inputs": [],
      "name": "Unpause",
      "type": "event"
    },
    {
      "anonymous": false,
      "inputs": [
        {
          "indexed": true,
          "name": "previousOwner",
          "type": "address"
        },
        {
          "indexed": true,
          "name": "newOwner",
          "type": "address"
        }
      ],
      "name": "OwnershipTransferred",
      "type": "event"
    },
    {
      "anonymous": false,
      "inputs": [
        {
          "indexed": true,
          "name": "owner",
          "type": "address"
        },
        {
          "indexed": true,
          "name": "spender",
          "type": "address"
        },
        {
          "indexed": false,
          "name": "value",
          "type": "uint256"
        }
      ],
      "name": "Approval",
      "type": "event"
    },
    {
      "anonymous": false,
      "inputs": [
        {
          "indexed": true,
          "name": "from",
          "type": "address"
        },
        {
          "indexed": true,
          "name": "to",
          "type": "address"
        },
        {
          "indexed": false,
          "name": "value",
          "type": "uint256"
        }
      ],
      "name": "Transfer",
      "type": "event"
    },
    {
      "constant": false,
      "inputs": [
        {
          "name": "beneficiary",
          "type": "address"
        },
        {
          "name": "amount",
          "type": "uint256"
        }
      ],
      "name": "transferTokens",
      "outputs": [
        {
          "name": "",
          "type": "bool"
        }
      ],
      "payable": false,
      "stateMutability": "nonpayable",
      "type": "function"
    }
  ],
  "bytecode": "0x60806040526003805460a060020a60ff021916905534801561002057600080fd5b5060038054600160a060020a0319163390811790915567016345785d8a000060008181559182526001602052604090912055610d70806100616000396000f3006080604052600436106101065763ffffffff7c010000000000000000000000000000000000000000000000000000000060003504166306fdde03811461010b578063095ea7b31461019557806318160ddd146101cd57806323b872dd146101f45780632ff2e9dc1461021e578063313ce567146102335780633f4ba83a1461025e57806342966c68146102755780635c975abb1461028d57806366188463146102a257806370a08231146102c65780638456cb59146102e75780638da5cb5b146102fc57806395d89b411461032d578063a9059cbb14610342578063bec3fa1714610366578063d73dd6231461038a578063dd62ed3e146103ae578063f2fde38b146103d5575b600080fd5b34801561011757600080fd5b506101206103f6565b6040805160208082528351818301528351919283929083019185019080838360005b8381101561015a578181015183820152602001610142565b50505050905090810190601f1680156101875780820380516001836020036101000a031916815260200191505b509250505060405180910390f35b3480156101a157600080fd5b506101b9600160a060020a036004351660243561042d565b604080519115158252519081900360200190f35b3480156101d957600080fd5b506101e2610458565b60408051918252519081900360200190f35b34801561020057600080fd5b506101b9600160a060020a036004358116906024351660443561045e565b34801561022a57600080fd5b506101e261048b565b34801561023f57600080fd5b50610248610497565b6040805160ff9092168252519081900360200190f35b34801561026a57600080fd5b5061027361049c565b005b34801561028157600080fd5b50610273600435610514565b34801561029957600080fd5b506101b96105d2565b3480156102ae57600080fd5b506101b9600160a060020a03600435166024356105e2565b3480156102d257600080fd5b506101e2600160a060020a0360043516610606565b3480156102f357600080fd5b50610273610621565b34801561030857600080fd5b5061031161069e565b60408051600160a060020a039092168252519081900360200190f35b34801561033957600080fd5b506101206106ad565b34801561034e57600080fd5b506101b9600160a060020a03600435166024356106e4565b34801561037257600080fd5b506101b9600160a060020a0360043516602435610708565b34801561039657600080fd5b506101b9600160a060020a03600435166024356107f4565b3480156103ba57600080fd5b506101e2600160a060020a0360043581169060243516610818565b3480156103e157600080fd5b50610273600160a060020a0360043516610843565b60408051808201909152601481527f53696e67756c61726974794e455420546f6b656e000000000000000000000000602082015281565b60035460009060a060020a900460ff161561044757600080fd5b61045183836108d8565b9392505050565b60005481565b60035460009060a060020a900460ff161561047857600080fd5b61048384848461093e565b949350505050565b67016345785d8a000081565b600881565b600354600160a060020a031633146104b357600080fd5b60035460a060020a900460ff1615156104cb57600080fd5b6003805474ff0000000000000000000000000000000000000000191690556040517f7805862f689e2f13df9f062ff482ad3ad112aca9e0847911ed832e158c525b3390600090a1565b600080821161052257600080fd5b3360009081526001602052604090205482111561053e57600080fd5b503360008181526001602052604090205461055f908363ffffffff610ab716565b600160a060020a0382166000908152600160205260408120919091555461058c908363ffffffff610ab716565b600055604080518381529051600160a060020a038316917fcc16f5dbb4873280815c1ee09dbd06736cffcc184412cf7a71a0fdb75d397ca5919081900360200190a25050565b60035460a060020a900460ff1681565b60035460009060a060020a900460ff16156105fc57600080fd5b6104518383610ac9565b600160a060020a031660009081526001602052604090205490565b600354600160a060020a0316331461063857600080fd5b60035460a060020a900460ff161561064f57600080fd5b6003805474ff0000000000000000000000000000000000000000191660a060020a1790556040517f6985a02210a168e66602d3235cb6db0e70f92b3ba4d376a33c0f3d9434bff62590600090a1565b600354600160a060020a031681565b60408051808201909152600381527f4147490000000000000000000000000000000000000000000000000000000000602082015281565b60035460009060a060020a900460ff16156106fe57600080fd5b6104518383610bb9565b600354600090600160a060020a0316331461072257600080fd5b6000821161072f57600080fd5b600354600160a060020a031660009081526001602052604090205461075a908363ffffffff610ab716565b600354600160a060020a039081166000908152600160205260408082209390935590851681522054610792908363ffffffff610c9c16565b600160a060020a03808516600081815260016020908152604091829020949094556003548151878152915192949316927fddf252ad1be2c89b69c2b068fc378daa952ba7f163c4a11628f55a4df523b3ef92918290030190a350600192915050565b60035460009060a060020a900460ff161561080e57600080fd5b6104518383610cab565b600160a060020a03918216600090815260026020908152604080832093909416825291909152205490565b600354600160a060020a0316331461085a57600080fd5b600160a060020a038116151561086f57600080fd5b600354604051600160a060020a038084169216907f8be0079c531659141344cd1fd0a4f28419497f9722a3daafe3b4186f6b6457e090600090a36003805473ffffffffffffffffffffffffffffffffffffffff1916600160a060020a0392909216919091179055565b336000818152600260209081526040808320600160a060020a038716808552908352818420869055815186815291519394909390927f8c5be1e5ebec7d5bd14f71427d1e84f3dd0314c0f7b2291e5b200ac8c7c3b925928290030190a350600192915050565b6000600160a060020a038316151561095557600080fd5b600160a060020a03841660009081526001602052604090205482111561097a57600080fd5b600160a060020a03841660009081526002602090815260408083203384529091529020548211156109aa57600080fd5b600160a060020a0384166000908152600160205260409020546109d3908363ffffffff610ab716565b600160a060020a038086166000908152600160205260408082209390935590851681522054610a08908363ffffffff610c9c16565b600160a060020a038085166000908152600160209081526040808320949094559187168152600282528281203382529091522054610a4c908363ffffffff610ab716565b600160a060020a03808616600081815260026020908152604080832033845282529182902094909455805186815290519287169391927fddf252ad1be2c89b69c2b068fc378daa952ba7f163c4a11628f55a4df523b3ef929181900390910190a35060019392505050565b600082821115610ac357fe5b50900390565b336000908152600260209081526040808320600160a060020a038616845290915281205480831115610b1e57336000908152600260209081526040808320600160a060020a0388168452909152812055610b53565b610b2e818463ffffffff610ab716565b336000908152600260209081526040808320600160a060020a03891684529091529020555b336000818152600260209081526040808320600160a060020a0389168085529083529281902054815190815290519293927f8c5be1e5ebec7d5bd14f71427d1e84f3dd0314c0f7b2291e5b200ac8c7c3b925929181900390910190a35060019392505050565b6000600160a060020a0383161515610bd057600080fd5b33600090815260016020526040902054821115610bec57600080fd5b33600090815260016020526040902054610c0c908363ffffffff610ab716565b3360009081526001602052604080822092909255600160a060020a03851681522054610c3e908363ffffffff610c9c16565b600160a060020a0384166000818152600160209081526040918290209390935580518581529051919233927fddf252ad1be2c89b69c2b068fc378daa952ba7f163c4a11628f55a4df523b3ef9281900390910190a350600192915050565b60008282018381101561045157fe5b336000908152600260209081526040808320600160a060020a0386168452909152812054610cdf908363ffffffff610c9c16565b336000818152600260209081526040808320600160a060020a0389168085529083529281902085905580519485525191937f8c5be1e5ebec7d5bd14f71427d1e84f3dd0314c0f7b2291e5b200ac8c7c3b925929081900390910190a3506001929150505600a165627a7a72305820a0fb379da7ced8280eca60584d282fc37209e0ae11b1275a0403be1d566d01380029",
  "source": "pragma solidity ^0.4.18;\n\nimport \"zeppelin-solidity/contracts/token/PausableToken.sol\";\nimport \"zeppelin-solidity/contracts/token/BurnableToken.sol\";\n\n\n/**\n * @title SingularityNET Token\n * @dev ERC20 SingularityNET Token (AGI)\n *\n * AGI Tokens are divisible by 1e8 (100,000,000) base\n * referred to as 'cogs'.\n *\n * AGI are displayed using 8 decimal places of precision.\n *\n * 1 AGI is equivalent to:\n *   100 000 000 == 1 * 10**8 == 1e8 == One Hundred Million cogs\n *\n * 1 Billion AGI (total supply) is equivalent to:\n *   100000000000000000 == 1 000 000 000 * 10**8 == 1e17 == One Hundred Quadrillion cogs\n *\n *\n */\ncontract SingularityNetToken is PausableToken, BurnableToken {\n\n    string public constant name = \"SingularityNET Token\";\n    string public constant symbol = \"AGI\";\n    uint8 public constant decimals = 8;\n    uint256 public constant INITIAL_SUPPLY = 1000000000 * 10**uint256(decimals);\n    \n    /**\n    * @dev SingularityNetToken Constructor\n    */\n\n    function SingularityNetToken() {\n        totalSupply = INITIAL_SUPPLY;   \n        balances[msg.sender] = INITIAL_SUPPLY;\n    }\n\n    function transferTokens(address beneficiary, uint256 amount) onlyOwner returns (bool) {\n        require(amount > 0);\n\n        balances[owner] = balances[owner].sub(amount);\n        balances[beneficiary] = balances[beneficiary].add(amount);\n        Transfer(owner, beneficiary, amount);\n\n        return true;\n    }\n}\n",
  "sourcePath": "C:\\MyProjects\\SingularityNet\\SingularityNetToken_Gen\\contracts\\SingularityNetToken.sol",
  "compiler": {
    "name": "solc",
    "version": "0.4.24+commit.e67f0147.Emscripten.clang"
  },
  "schemaVersion": "2.0.1",
  "updatedAt": "2019-01-07T16:41:10.647Z"
}