{
  "contractName": "ServiceRequest",
  "abi": [
    {
      "constant": true,
      "inputs": [
        {
          "name": "",
          "type": "address"
        }
      ],
      "name": "balances",
      "outputs": [
        {
          "name": "",
          "type": "uint256"
        }
      ],
      "payable": false,
      "stateMutability": "view",
      "type": "function"
    },
    {
      "constant": true,
      "inputs": [],
      "name": "minStake",
      "outputs": [
        {
          "name": "",
          "type": "uint256"
        }
      ],
      "payable": false,
      "stateMutability": "view",
      "type": "function"
    },
    {
      "constant": true,
      "inputs": [],
      "name": "maxStakers",
      "outputs": [
        {
          "name": "",
          "type": "uint256"
        }
      ],
      "payable": false,
      "stateMutability": "view",
      "type": "function"
    },
    {
      "constant": true,
      "inputs": [],
      "name": "nextRequestId",
      "outputs": [
        {
          "name": "",
          "type": "uint256"
        }
      ],
      "payable": false,
      "stateMutability": "view",
      "type": "function"
    },
    {
      "constant": true,
      "inputs": [
        {
          "name": "",
          "type": "uint256"
        }
      ],
      "name": "requests",
      "outputs": [
        {
          "name": "requestId",
          "type": "uint256"
        },
        {
          "name": "requester",
          "type": "address"
        },
        {
          "name": "totalFund",
          "type": "uint256"
        },
        {
          "name": "documentURI",
          "type": "bytes"
        },
        {
          "name": "expiration",
          "type": "uint256"
        },
        {
          "name": "endSubmission",
          "type": "uint256"
        },
        {
          "name": "endEvaluation",
          "type": "uint256"
        },
        {
          "name": "status",
          "type": "uint8"
        }
      ],
      "payable": false,
      "stateMutability": "view",
      "type": "function"
    },
    {
      "constant": true,
      "inputs": [],
      "name": "owner",
      "outputs": [
        {
          "name": "",
          "type": "address"
        }
      ],
      "payable": false,
      "stateMutability": "view",
      "type": "function"
    },
    {
      "constant": true,
      "inputs": [
        {
          "name": "",
          "type": "address"
        }
      ],
      "name": "foundationMembers",
      "outputs": [
        {
          "name": "role",
          "type": "uint256"
        },
        {
          "name": "status",
          "type": "bool"
        },
        {
          "name": "exists",
          "type": "bool"
        }
      ],
      "payable": false,
      "stateMutability": "view",
      "type": "function"
    },
    {
      "constant": true,
      "inputs": [
        {
          "name": "",
          "type": "uint256"
        }
      ],
      "name": "memberKeys",
      "outputs": [
        {
          "name": "",
          "type": "address"
        }
      ],
      "payable": false,
      "stateMutability": "view",
      "type": "function"
    },
    {
      "constant": true,
      "inputs": [],
      "name": "token",
      "outputs": [
        {
          "name": "",
          "type": "address"
        }
      ],
      "payable": false,
      "stateMutability": "view",
      "type": "function"
    },
    {
      "inputs": [
        {
          "name": "_token",
          "type": "address"
        },
        {
          "name": "_minStake",
          "type": "uint256"
        },
        {
          "name": "_maxStakers",
          "type": "uint256"
        }
      ],
      "payable": false,
      "stateMutability": "nonpayable",
      "type": "constructor"
    },
    {
      "anonymous": false,
      "inputs": [
        {
          "indexed": true,
          "name": "member",
          "type": "address"
        },
        {
          "indexed": false,
          "name": "role",
          "type": "uint256"
        },
        {
          "indexed": false,
          "name": "status",
          "type": "bool"
        },
        {
          "indexed": true,
          "name": "actor",
          "type": "address"
        }
      ],
      "name": "AddFoundationMember",
      "type": "event"
    },
    {
      "anonymous": false,
      "inputs": [
        {
          "indexed": false,
          "name": "requestId",
          "type": "uint256"
        },
        {
          "indexed": true,
          "name": "requester",
          "type": "address"
        },
        {
          "indexed": false,
          "name": "expiration",
          "type": "uint256"
        },
        {
          "indexed": false,
          "name": "amount",
          "type": "uint256"
        },
        {
          "indexed": false,
          "name": "documentURI",
          "type": "bytes"
        }
      ],
      "name": "CreateRequest",
      "type": "event"
    },
    {
      "anonymous": false,
      "inputs": [
        {
          "indexed": true,
          "name": "requestId",
          "type": "uint256"
        },
        {
          "indexed": true,
          "name": "requester",
          "type": "address"
        },
        {
          "indexed": false,
          "name": "expiration",
          "type": "uint256"
        }
      ],
      "name": "ExtendRequest",
      "type": "event"
    },
    {
      "anonymous": false,
      "inputs": [
        {
          "indexed": true,
          "name": "requestId",
          "type": "uint256"
        },
        {
          "indexed": true,
          "name": "approver",
          "type": "address"
        },
        {
          "indexed": false,
          "name": "endSubmission",
          "type": "uint256"
        },
        {
          "indexed": false,
          "name": "endEvaluation",
          "type": "uint256"
        },
        {
          "indexed": false,
          "name": "expiration",
          "type": "uint256"
        }
      ],
      "name": "ApproveRequest",
      "type": "event"
    },
    {
      "anonymous": false,
      "inputs": [
        {
          "indexed": true,
          "name": "requestId",
          "type": "uint256"
        },
        {
          "indexed": true,
          "name": "staker",
          "type": "address"
        },
        {
          "indexed": false,
          "name": "amount",
          "type": "uint256"
        }
      ],
      "name": "FundRequest",
      "type": "event"
    },
    {
      "anonymous": false,
      "inputs": [
        {
          "indexed": true,
          "name": "requestId",
          "type": "uint256"
        },
        {
          "indexed": true,
          "name": "submitter",
          "type": "address"
        },
        {
          "indexed": false,
          "name": "solutionDocURI",
          "type": "bytes"
        }
      ],
      "name": "AddSolutionRequest",
      "type": "event"
    },
    {
      "anonymous": false,
      "inputs": [
        {
          "indexed": true,
          "name": "requestId",
          "type": "uint256"
        },
        {
          "indexed": true,
          "name": "voter",
          "type": "address"
        },
        {
          "indexed": true,
          "name": "submitter",
          "type": "address"
        }
      ],
      "name": "VoteRequest",
      "type": "event"
    },
    {
      "anonymous": false,
      "inputs": [
        {
          "indexed": true,
          "name": "requestId",
          "type": "uint256"
        },
        {
          "indexed": true,
          "name": "submitter",
          "type": "address"
        },
        {
          "indexed": false,
          "name": "amount",
          "type": "uint256"
        }
      ],
      "name": "ClaimRequest",
      "type": "event"
    },
    {
      "anonymous": false,
      "inputs": [
        {
          "indexed": true,
          "name": "requestId",
          "type": "uint256"
        },
        {
          "indexed": true,
          "name": "stacker",
          "type": "address"
        },
        {
          "indexed": false,
          "name": "amount",
          "type": "uint256"
        }
      ],
      "name": "ClaimBackRequest",
      "type": "event"
    },
    {
      "anonymous": false,
      "inputs": [
        {
          "indexed": true,
          "name": "requestId",
          "type": "uint256"
        },
        {
          "indexed": true,
          "name": "actor",
          "type": "address"
        }
      ],
      "name": "CloseRequest",
      "type": "event"
    },
    {
      "anonymous": false,
      "inputs": [
        {
          "indexed": true,
          "name": "requestId",
          "type": "uint256"
        },
        {
          "indexed": true,
          "name": "actor",
          "type": "address"
        }
      ],
      "name": "RejectRequest",
      "type": "event"
    },
    {
      "constant": false,
      "inputs": [
        {
          "name": "value",
          "type": "uint256"
        }
      ],
      "name": "deposit",
      "outputs": [
        {
          "name": "",
          "type": "bool"
        }
      ],
      "payable": false,
      "stateMutability": "nonpayable",
      "type": "function"
    },
    {
      "constant": false,
      "inputs": [
        {
          "name": "value",
          "type": "uint256"
        }
      ],
      "name": "withdraw",
      "outputs": [
        {
          "name": "",
          "type": "bool"
        }
      ],
      "payable": false,
      "stateMutability": "nonpayable",
      "type": "function"
    },
    {
      "constant": false,
      "inputs": [
        {
          "name": "newOwner",
          "type": "address"
        }
      ],
      "name": "updateOwner",
      "outputs": [
        {
          "name": "",
          "type": "bool"
        }
      ],
      "payable": false,
      "stateMutability": "nonpayable",
      "type": "function"
    },
    {
      "constant": false,
      "inputs": [
        {
          "name": "_minStake",
          "type": "uint256"
        },
        {
          "name": "_maxStakers",
          "type": "uint256"
        }
      ],
      "name": "updateLimits",
      "outputs": [
        {
          "name": "",
          "type": "bool"
        }
      ],
      "payable": false,
      "stateMutability": "nonpayable",
      "type": "function"
    },
    {
      "constant": false,
      "inputs": [
        {
          "name": "member",
          "type": "address"
        },
        {
          "name": "role",
          "type": "uint256"
        },
        {
          "name": "active",
          "type": "bool"
        }
      ],
      "name": "addOrUpdateFoundationMembers",
      "outputs": [
        {
          "name": "",
          "type": "bool"
        }
      ],
      "payable": false,
      "stateMutability": "nonpayable",
      "type": "function"
    },
    {
      "constant": false,
      "inputs": [
        {
          "name": "value",
          "type": "uint256"
        },
        {
          "name": "expiration",
          "type": "uint256"
        },
        {
          "name": "documentURI",
          "type": "bytes"
        }
      ],
      "name": "createRequest",
      "outputs": [
        {
          "name": "",
          "type": "bool"
        }
      ],
      "payable": false,
      "stateMutability": "nonpayable",
      "type": "function"
    },
    {
      "constant": false,
      "inputs": [
        {
          "name": "value",
          "type": "uint256"
        },
        {
          "name": "expiration",
          "type": "uint256"
        },
        {
          "name": "documentURI",
          "type": "bytes"
        }
      ],
      "name": "depositAndCreateRequest",
      "outputs": [
        {
          "name": "",
          "type": "bool"
        }
      ],
      "payable": false,
      "stateMutability": "nonpayable",
      "type": "function"
    },
    {
      "constant": false,
      "inputs": [
        {
          "name": "requestId",
          "type": "uint256"
        },
        {
          "name": "newExpiration",
          "type": "uint256"
        }
      ],
      "name": "extendRequest",
      "outputs": [
        {
          "name": "",
          "type": "bool"
        }
      ],
      "payable": false,
      "stateMutability": "nonpayable",
      "type": "function"
    },
    {
      "constant": false,
      "inputs": [
        {
          "name": "requestId",
          "type": "uint256"
        },
        {
          "name": "amount",
          "type": "uint256"
        }
      ],
      "name": "addFundsToRequest",
      "outputs": [
        {
          "name": "",
          "type": "bool"
        }
      ],
      "payable": false,
      "stateMutability": "nonpayable",
      "type": "function"
    },
    {
      "constant": false,
      "inputs": [
        {
          "name": "requestId",
          "type": "uint256"
        },
        {
          "name": "newExpiration",
          "type": "uint256"
        },
        {
          "name": "amount",
          "type": "uint256"
        }
      ],
      "name": "extendAndAddFundsToRequest",
      "outputs": [],
      "payable": false,
      "stateMutability": "nonpayable",
      "type": "function"
    },
    {
      "constant": false,
      "inputs": [
        {
          "name": "requestId",
          "type": "uint256"
        },
        {
          "name": "endSubmission",
          "type": "uint256"
        },
        {
          "name": "endEvaluation",
          "type": "uint256"
        },
        {
          "name": "newExpiration",
          "type": "uint256"
        }
      ],
      "name": "approveRequest",
      "outputs": [
        {
          "name": "",
          "type": "bool"
        }
      ],
      "payable": false,
      "stateMutability": "nonpayable",
      "type": "function"
    },
    {
      "constant": false,
      "inputs": [
        {
          "name": "requestId",
          "type": "uint256"
        }
      ],
      "name": "rejectRequest",
      "outputs": [
        {
          "name": "",
          "type": "bool"
        }
      ],
      "payable": false,
      "stateMutability": "nonpayable",
      "type": "function"
    },
    {
      "constant": false,
      "inputs": [
        {
          "name": "requestId",
          "type": "uint256"
        }
      ],
      "name": "closeRequest",
      "outputs": [
        {
          "name": "",
          "type": "bool"
        }
      ],
      "payable": false,
      "stateMutability": "nonpayable",
      "type": "function"
    },
    {
      "constant": false,
      "inputs": [
        {
          "name": "requestId",
          "type": "uint256"
        },
        {
          "name": "solutionDocURI",
          "type": "bytes"
        }
      ],
      "name": "createOrUpdateSolutionProposal",
      "outputs": [
        {
          "name": "",
          "type": "bool"
        }
      ],
      "payable": false,
      "stateMutability": "nonpayable",
      "type": "function"
    },
    {
      "constant": false,
      "inputs": [
        {
          "name": "requestId",
          "type": "uint256"
        },
        {
          "name": "solutionSubmitter",
          "type": "address"
        }
      ],
      "name": "vote",
      "outputs": [
        {
          "name": "",
          "type": "bool"
        }
      ],
      "payable": false,
      "stateMutability": "nonpayable",
      "type": "function"
    },
    {
      "constant": false,
      "inputs": [
        {
          "name": "requestId",
          "type": "uint256"
        }
      ],
      "name": "requestClaimBack",
      "outputs": [
        {
          "name": "",
          "type": "bool"
        }
      ],
      "payable": false,
      "stateMutability": "nonpayable",
      "type": "function"
    },
    {
      "constant": false,
      "inputs": [
        {
          "name": "requestId",
          "type": "uint256"
        }
      ],
      "name": "requestClaim",
      "outputs": [
        {
          "name": "",
          "type": "bool"
        }
      ],
      "payable": false,
      "stateMutability": "nonpayable",
      "type": "function"
    },
    {
      "constant": true,
      "inputs": [],
      "name": "getFoundationMemberKeys",
      "outputs": [
        {
          "name": "",
          "type": "address[]"
        }
      ],
      "payable": false,
      "stateMutability": "view",
      "type": "function"
    },
    {
      "constant": true,
      "inputs": [
        {
          "name": "reqId",
          "type": "uint256"
        }
      ],
      "name": "getServiceRequestById",
      "outputs": [
        {
          "name": "found",
          "type": "bool"
        },
        {
          "name": "requestId",
          "type": "uint256"
        },
        {
          "name": "requester",
          "type": "address"
        },
        {
          "name": "totalFund",
          "type": "uint256"
        },
        {
          "name": "documentURI",
          "type": "bytes"
        },
        {
          "name": "expiration",
          "type": "uint256"
        },
        {
          "name": "endSubmission",
          "type": "uint256"
        },
        {
          "name": "endEvaluation",
          "type": "uint256"
        },
        {
          "name": "status",
          "type": "uint8"
        },
        {
          "name": "stakeMembers",
          "type": "address[]"
        },
        {
          "name": "submitters",
          "type": "address[]"
        }
      ],
      "payable": false,
      "stateMutability": "view",
      "type": "function"
    },
    {
      "constant": true,
      "inputs": [
        {
          "name": "requestId",
          "type": "uint256"
        },
        {
          "name": "submitter",
          "type": "address"
        }
      ],
      "name": "getSubmittedSolutionById",
      "outputs": [
        {
          "name": "found",
          "type": "bool"
        },
        {
          "name": "solutionDocURI",
          "type": "bytes"
        },
        {
          "name": "totalVotes",
          "type": "uint256"
        },
        {
          "name": "isSubmitted",
          "type": "bool"
        },
        {
          "name": "isShortlisted",
          "type": "bool"
        },
        {
          "name": "isClaimed",
          "type": "bool"
        }
      ],
      "payable": false,
      "stateMutability": "view",
      "type": "function"
    },
    {
      "constant": true,
      "inputs": [
        {
          "name": "requestId",
          "type": "uint256"
        },
        {
          "name": "staker",
          "type": "address"
        }
      ],
      "name": "getStakeById",
      "outputs": [
        {
          "name": "found",
          "type": "bool"
        },
        {
          "name": "stake",
          "type": "uint256"
        }
      ],
      "payable": false,
      "stateMutability": "view",
      "type": "function"
    }
  ],
  "bytecode": "0x608060405234801561001057600080fd5b506040516060806127d583398101604090815281516020830151919092015160088054600160a060020a03909416600160a060020a031994851617905560058054909316331790925560008055600355600455612763806100726000396000f30060806040526004361061017f5763ffffffff7c010000000000000000000000000000000000000000000000000000000060003504166302d947ef81146101845780630eaa4767146101bc578063168b344f146101dd57806327be51211461024257806327e235e3146102815780632d7788db146102b45780632e1a7d4d146102cc578063375b3c0a146102e457806339fe7e21146102f95780633c3ff3ef146103595780634f7ff503146103745780636a84a985146103895780637b731f731461039e57806381d12c58146103b6578063880cdc31146104975780638da5cb5b146104b8578063a2240e19146104e9578063a7e5c8f014610504578063ac6a08de1461052d578063b33bb6a51461056e578063b6b55f25146105cc578063b72f5bf4146105e4578063ca7f748614610604578063cd8320ed146106ca578063e00b288a1461083c578063f0282b7f14610854578063f504b0891461086c578063f8a880aa14610884578063fc0c546a146108e4578063fe444e56146108f9575b600080fd5b34801561019057600080fd5b506101a8600435600160a060020a0360243516610914565b604080519115158252519081900360200190f35b3480156101c857600080fd5b506101a8600435602435604435606435610a76565b3480156101e957600080fd5b506101f2610b64565b60408051602080825283518183015283519192839290830191858101910280838360005b8381101561022e578181015183820152602001610216565b505050509050019250505060405180910390f35b34801561024e57600080fd5b50610266600435600160a060020a0360243516610bc7565b60408051921515835260208301919091528051918290030190f35b34801561028d57600080fd5b506102a2600160a060020a0360043516610c2a565b60408051918252519081900360200190f35b3480156102c057600080fd5b506101a8600435610c3c565b3480156102d857600080fd5b506101a8600435610cd0565b3480156102f057600080fd5b506102a2610dc8565b34801561030557600080fd5b50604080516020600460443581810135601f81018490048402850184019095528484526101a8948235946024803595369594606494920191908190840183828082843750949750610dce9650505050505050565b34801561036557600080fd5b506101a86004356024356110b6565b34801561038057600080fd5b506102a261128d565b34801561039557600080fd5b506102a2611293565b3480156103aa57600080fd5b506101a8600435611299565b3480156103c257600080fd5b506103ce600435611416565b6040518089815260200188600160a060020a0316600160a060020a031681526020018781526020018060200186815260200185815260200184815260200183600481111561041857fe5b60ff168152602001828103825287818151815260200191508051906020019080838360005b8381101561045557818101518382015260200161043d565b50505050905090810190601f1680156104825780820380516001836020036101000a031916815260200191505b50995050505050505050505060405180910390f35b3480156104a357600080fd5b506101a8600160a060020a03600435166114ed565b3480156104c457600080fd5b506104cd611541565b60408051600160a060020a039092168252519081900360200190f35b3480156104f557600080fd5b506101a8600435602435611550565b34801561051057600080fd5b506101a8600160a060020a03600435166024356044351515611579565b34801561053957600080fd5b5061054e600160a060020a036004351661170f565b604080519384529115156020840152151582820152519081900360600190f35b34801561057a57600080fd5b5060408051602060046024803582810135601f81018590048502860185019096528585526101a89583359536956044949193909101919081908401838280828437509497506117349650505050505050565b3480156105d857600080fd5b506101a8600435611944565b3480156105f057600080fd5b50610602600435602435604435611a95565b005b34801561061057600080fd5b50610628600435600160a060020a0360243516611ac4565b6040805187151581529081018590528315156060820152821515608082015281151560a082015260c06020808301828152885192840192909252875160e084019189019080838360005b8381101561068a578181015183820152602001610672565b50505050905090810190601f1680156106b75780820380516001836020036101000a031916815260200191505b5097505050505050505060405180910390f35b3480156106d657600080fd5b506106e2600435611c01565b604051808c1515151581526020018b81526020018a600160a060020a0316600160a060020a031681526020018981526020018060200188815260200187815260200186815260200185600481111561073657fe5b60ff168152602001806020018060200184810384528b818151815260200191508051906020019080838360005b8381101561077b578181015183820152602001610763565b50505050905090810190601f1680156107a85780820380516001836020036101000a031916815260200191505b508481038352865181528651602091820191808901910280838360005b838110156107dd5781810151838201526020016107c5565b50505050905001848103825285818151815260200191508051906020019060200280838360005b8381101561081c578181015183820152602001610804565b505050509050019e50505050505050505050505050505060405180910390f35b34801561084857600080fd5b506101a8600435611e70565b34801561086057600080fd5b506101a8600435612246565b34801561087857600080fd5b506104cd60043561230a565b34801561089057600080fd5b50604080516020600460443581810135601f81018490048402850184019095528484526101a89482359460248035953695946064949201919081908401838280828437509497506123329650505050505050565b3480156108f057600080fd5b506104cd612368565b34801561090557600080fd5b506101a8600435602435612377565b6000828152600160208190526040822090600782015460ff16600481111561093857fe5b1461094257600080fd5b8060040154431080156109585750806005015443115b8015610968575080600601544311155b151561097357600080fd5b3360009081526007602052604090206001015460ff16806109a35750336000908152600982016020526040812054115b15156109ae57600080fd5b600160a060020a0383166000908152600b8201602052604090206002015460ff1680156109e4575033600160a060020a03841614155b15156109ef57600080fd5b600160a060020a0383166000908152600b820160209081526040808320600190810180548201905533845260079092529091200154610a34908590859060ff16612417565b604051600160a060020a03841690339086907f3eb39bf09a967b24103c862ecf5070a50f3b20a80a64d1d0f80d4adc5833c96590600090a45060019392505050565b33600090815260076020526040812060010154819060ff161515610a9957600080fd5b50600085815260016020526040812090600782015460ff166004811115610abc57fe5b14610ac657600080fd5b8385108015610ad457508284105b8015610ae4575080600401548310155b1515610aef57600080fd5b60078101805460ff1916600117905560058101859055600681018490556004810183905560408051868152602081018690528082018590529051339188917f6a7527c1127e57b7178d486b4702a1e61c216676962cbb55209b332a93f5b466916060908290030190a350600195945050505050565b60606006805480602002602001604051908101604052809291908181526020018280548015610bbc57602002820191906000526020600020905b8154600160a060020a03168152600190910190602001808311610b9e575b505050505090505b90565b6000828152600160209081526040808320600160a060020a0385168452600981019092528220548291901515610c005760009250610c22565b600160a060020a03841660009081526009820160205260409020546001935091505b509250929050565b60026020526000908152604090205481565b33600090815260076020526040812060010154819060ff161515610c5f57600080fd5b50600082815260016020526040812090600782015460ff166004811115610c8257fe5b14610c8c57600080fd5b60078101805460ff19166002179055604051339084907ece63cc55966b103e4f4cb39f3426cb91718ad4f8eb4ad08c14a7ee749d815790600090a350600192915050565b33600090815260026020526040812054821115610cec57600080fd5b600854604080517fa9059cbb000000000000000000000000000000000000000000000000000000008152336004820152602481018590529051600160a060020a039092169163a9059cbb916044808201926020929091908290030181600087803b158015610d5957600080fd5b505af1158015610d6d573d6000803e3d6000fd5b505050506040513d6020811015610d8357600080fd5b50511515610d9057600080fd5b33600090815260026020526040902054610db0908363ffffffff61252a16565b33600090815260026020526040902055506001919050565b60035481565b6000610dd8612564565b336000908152600260205260409020548511801590610df957506003548510155b1515610e0457600080fd5b8251600010610e1257600080fd5b438411610e1e57600080fd5b6000805481526001602081815260409283902084518155848201519281018054600160a060020a031916600160a060020a0390941693909317909255918301516002820155606083015180518493610e7d9260038501929101906125cc565b506080820151816004015560a0820151816005015560c0820151816006015560e08201518160070160006101000a81548160ff02191690836004811115610ec057fe5b02179055506101008201518051610ee191600884019160209091019061264a565b506101208201518051610efe91600a84019160209091019061264a565b505060008054808252600160208181526040808520938455929091018054600160a060020a03191633179055825483528183206002018990558254835291208551610f5293506003909101918601906125cc565b5060008054815260016020908152604080832060040187905582548352808320600701805460ff191690553383526002909152902054610f92908661252a565b3360008181526002602090815260408083209490945581548252600180825284832084845260090182528483208a90558254835280825284832060080180548083018255908452828420018054600160a060020a031916851790558254908101835584518181528083018a90529485018a9052608060608601818152895191870191909152885194957fe4940ae2b42ec040756a3ea4c2b2f4e85090b147982955e07be76d7be30360099592948b948d948c949260a0850192860191908190849084905b8381101561106e578181015183820152602001611056565b50505050905090810190601f16801561109b5780820380516001836020036101000a031916815260200191505b509550505050505060405180910390a2506001949350505050565b6000828152600160209081526040808320338452600290925282205483118015906110e15750600083115b801561110c57506003548310158061110c575060035433600090815260098301602052604090205410155b151561111757600080fd5b6001600782015460ff16600481111561112c57fe5b1461113657600080fd5b80600401544310801561114c5750806006015443105b151561115757600080fd5b6004546008820154108061117a5750336000908152600982016020526040812054115b151561118557600080fd5b336000908152600260205260409020546111a5908463ffffffff61252a16565b336000908152600260208190526040909120919091558101546111ce908463ffffffff61253c16565b600282015533600090815260098201602052604090205415156112135760088101805460018101825560009182526020909120018054600160a060020a031916331790555b336000908152600982016020526040902054611235908463ffffffff61253c16565b3360008181526009840160209081526040918290209390935580518681529051919287927fe956662328c81b19ccd3d8666304be39ec1b5fa1e9f004554a5ffaf996011b119281900390910190a35060019392505050565b60045481565b60005481565b60008181526001602052604081206002810154829081106112b957600080fd5b336000908152600983016020526040812054116112d557600080fd5b81600401544311801561131657506001600783015460ff1660048111156112f857fe5b148061131657506000600783015460ff16600481111561131457fe5b145b8061133357506004600783015460ff16600481111561133157fe5b145b8061135057506002600783015460ff16600481111561134e57fe5b145b151561135b57600080fd5b5033600090815260098201602090815260408083205460029092529091205461138a908263ffffffff61253c16565b3360009081526002602081815260408084209490945560098601905291902054908301546113bd9163ffffffff61252a16565b60028301553360008181526009840160209081526040808320929092558151848152915187927f32de38ef229bdf16704bf9929c12997953659c2693d86d09a0bc9099db37d20392908290030190a35060019392505050565b60016020818152600092835260409283902080548184015460028084015460038501805489516101009982161599909902600019011692909204601f81018790048702880187019098528787529296600160a060020a039092169592949091908301828280156114c75780601f1061149c576101008083540402835291602001916114c7565b820191906000526020600020905b8154815290600101906020018083116114aa57829003601f168201915b505050506004830154600584015460068501546007909501549394919390925060ff1688565b600554600090600160a060020a0316331461150757600080fd5b600160a060020a038216151561151c57600080fd5b5060058054600160a060020a038316600160a060020a03199091161790556001919050565b600554600160a060020a031681565b600554600090600160a060020a0316331461156a57600080fd5b50600391909155600455600190565b60006115836126ab565b600554600160a060020a03163314806115c857503360009081526007602052604090205460011480156115c857503360009081526007602052604090206001015460ff165b15156115d357600080fd5b600160a060020a03851615156115e857600080fd5b8315806115f55750836001145b151561160057600080fd5b600160a060020a038516600090815260076020526040902060010154610100900460ff16151561167657600680546001810182556000919091527ff652222313e28459528d920b65115c16c04f3efc82aaedc97be59f3f377c0d3f018054600160a060020a031916600160a060020a0387161790555b600160a060020a0385166000818152600760209081526040918290208185015160018201805485880151938b905589151593151561010090810261ff001994151560ff19938416178516179091168417909216909117905582518881529182015281513393927f04bacb862a32831fafcf5025e9a32500574cb00a09743ee037a0d93f60f47063928290030190a3506001949350505050565b6007602052600090815260409020805460019091015460ff8082169161010090041683565b60008061173f6126cb565b835160001061174d57600080fd5b60008581526001602081905260409091209250600783015460ff16600481111561177357fe5b1461177d57600080fd5b816004015443108015611794575081600501544311155b151561179f57600080fd5b336000908152600b8301602052604090206002015460ff1615156117e557600a8201805460018101825560009182526020909120018054600160a060020a031916331790555b336000908152600b83016020908152604090912082518051849361180d9284929101906125cc565b5060208281015160018301556040808401516002909301805460608601516080909601511515620100000262ff0000199615156101000261ff001996151560ff199093169290921795909516179490941692909217909255336000908152600b85018352208551611880928701906125cc565b50336000818152600b840160209081526040808320600201805460ff19166001179055805182815288518184015288518a947f289c99c8edfb41417e57324d8994c839d5c6cddacca30c18b6d24047617e8b28948b94849390840192918601918190849084905b838110156118ff5781810151838201526020016118e7565b50505050905090810190601f16801561192c5780820380516001836020036101000a031916815260200191505b509250505060405180910390a3506001949350505050565b600854604080517f23b872dd000000000000000000000000000000000000000000000000000000008152336004820152306024820152604481018490529051600092600160a060020a0316916323b872dd91606480830192602092919082900301818787803b1580156119b657600080fd5b505af11580156119ca573d6000803e3d6000fd5b505050506040513d60208110156119e057600080fd5b50511515611a7557604080517f08c379a000000000000000000000000000000000000000000000000000000000815260206004820152602860248201527f556e61626c6520746f207472616e7366657220746f6b656e20746f207468652060448201527f636f6e7472616374000000000000000000000000000000000000000000000000606482015290519081900360840190fd5b33600090815260026020526040902054610db0908363ffffffff61253c16565b611a9f8383612377565b1515611aaa57600080fd5b611ab483826110b6565b1515611abf57600080fd5b505050565b6000828152600160209081526040808320600160a060020a0385168452600b810190925282206002015460609183918291829182919060ff161515611b0c5760009650611bf6565b600160a060020a0388166000908152600b82016020908152604091829020805483516002600180841615610100026000190190931604601f8101859004850282018501909552848152909a50929091830182828015611bac5780601f10611b8157610100808354040283529160200191611bac565b820191906000526020600020905b815481529060010190602001808311611b8f57829003601f168201915b50505050600160a060020a038a166000908152600b840160205260409020600181015460029091015492985096505060ff8082169550610100820481169450620100009091041691505b509295509295509295565b6000806000806060600080600080606080611c1a612564565b60008d8152600160208181526040928390208351610140810185528154815281840154600160a060020a0316818401526002808301548287015260038301805487516101009782161597909702600019011691909104601f8101859004850286018501909652858552909491936060860193909290830182828015611ce05780601f10611cb557610100808354040283529160200191611ce0565b820191906000526020600020905b815481529060010190602001808311611cc357829003601f168201915b505050918352505060048281015460208301526005830154604083015260068301546060830152600783015460809092019160ff1690811115611d1f57fe5b6004811115611d2a57fe5b815260200160088201805480602002602001604051908101604052809291908181526020018280548015611d8757602002820191906000526020600020905b8154600160a060020a03168152600190910190602001808311611d69575b50505050508152602001600a8201805480602002602001604051908101604052809291908181526020018280548015611de957602002820191906000526020600020905b8154600160a060020a03168152600190910190602001808311611dcb575b505050919092525050506020810151909150600160a060020a03161515611e135760009b50611e60565b60019b5080600001519a50806020015199508060400151985080606001519750806080015196508060a0015195508060c0015194508060e001519350806101000151925080610120015191505b5091939597999b90929496989a50565b60008181526001602081905260408220829182918291829182918290600783015460ff166004811115611e9f57fe5b148015611eb0575060008260020154115b1515611ebb57600080fd5b816006015443118015611ed15750816004015443105b1515611edc57600080fd5b336000908152600b8301602052604090206002015460ff168015611f1b5750336000908152600b8301602052604090206002015462010000900460ff16155b1515611f2657600080fd5b506000808052600c82016020908152604080832090915281205496505b6008820154811015612192576008820180546000955082908110611f6357fe5b6000918252602080832090910154600160a060020a03168083526009850190915260408220549750935086111561218a57600160a060020a0383166000908152600c830160209081526040808320338452909152812054118015611fea5750600160a060020a0383166000908152600c830160209081526040808320838052909152812054115b1561202957600160a060020a0383166000908152600c830160209081526040808320909152808220548280529120546120229161252a565b93506120bd565b60008711801561205257506000808052600c830160209081526040808320338452909152812054115b80156120815750600160a060020a0383166000908152600c830160209081526040808320838052909152902054155b156120bd57600160a060020a0383166000908152600c8301602090815260408083209091529020546120ba90889063ffffffff61252a16565b93505b600084111561218a576120d6868563ffffffff61254f16565b600160a060020a0384166000908152600984016020526040902054909650612104908763ffffffff61252a16565b600160a060020a038416600090815260098401602052604090205561212f858763ffffffff61253c16565b600160a060020a0384166000908152600c84016020908152604080832090915290205490955061216690600163ffffffff61253c16565b600160a060020a0384166000908152600c8401602090815260408083209091529020555b600101611f43565b60028201546121a7908663ffffffff61252a16565b60028084019190915533600090815260209190915260409020546121d1908663ffffffff61253c16565b33600081815260026020818152604080842095909555600b870181529184902001805462ff00001916620100001790558251888152925191928c927fa77334abceb70f6b14676b12b5f95ea51e94727165c2ef31d7c4bbffb0d6c633929181900390910190a350600198975050505050505050565b6000818152600160208190526040822090600782015460ff16600481111561226a57fe5b14801561228957503360009081526007602052604090206001015460ff165b806122bd57506000600782015460ff1660048111156122a457fe5b1480156122bd57506001810154600160a060020a031633145b15156122c857600080fd5b60078101805460ff19166004179055604051339084907f33e0ef9a1b13c585505b41f1828c57935eb2a491b550de25345243e25d20b9bf90600090a350919050565b600680548290811061231857fe5b600091825260209091200154600160a060020a0316905081565b600061233d84611944565b151561234857600080fd5b612353848484610dce565b151561235e57600080fd5b5060019392505050565b600854600160a060020a031681565b6000828152600160208190526040822090810154600160a060020a0316331461239f57600080fd5b6000600782015460ff1660048111156123b457fe5b146123be57600080fd5b60048101548310156123cf57600080fd5b60048101839055604080518481529051339186917fbbc4dd3bce62c5b771c77df4171d005b37753117e94003de29886c3debb1ccf09181900360200190a35060019392505050565b60008381526001602052604090208180156124555750600160a060020a0383166000908152600b82016020526040902060020154610100900460ff16155b156124a6576000808052600c820160209081526040808320825280832080546001908101909155600160a060020a038716845281842055600b84019091529020600201805461ff0019166101001790555b3360009081526009820160205260408120541180156124e85750336000908152600c820160209081526040808320600160a060020a0387168452909152902054155b1561252457336000908152600c82016020908152604080832083805290915280822080546001908101909155600160a060020a03861683529120555b50505050565b60008282111561253657fe5b50900390565b8181018281101561254957fe5b92915050565b6000818381151561255c57fe5b049392505050565b61014060405190810160405280600081526020016000600160a060020a031681526020016000815260200160608152602001600081526020016000815260200160008152602001600060048111156125b857fe5b815260200160608152602001606081525090565b828054600181600116156101000203166002900490600052602060002090601f016020900481019282601f1061260d57805160ff191683800117855561263a565b8280016001018555821561263a579182015b8281111561263a57825182559160200191906001019061261f565b506126469291506126f9565b5090565b82805482825590600052602060002090810192821561269f579160200282015b8281111561269f5782518254600160a060020a031916600160a060020a0390911617825560209092019160019091019061266a565b50612646929150612713565b604080516060810182526000808252602082018190529181019190915290565b6040805160a08101825260608082526000602083018190529282018390528101829052608081019190915290565b610bc491905b8082111561264657600081556001016126ff565b610bc491905b80821115612646578054600160a060020a03191681556001016127195600a165627a7a72305820a485fa6eec0002c1097b5d74b5f618198f80fcb08f87c9db2adc4ee648ddf1d90029",
  "source": "pragma solidity ^0.4.24;\r\n\r\nimport \"openzeppelin-solidity/contracts/token/ERC20/ERC20.sol\";\r\nimport \"openzeppelin-solidity/contracts/math/SafeMath.sol\";\r\n\r\ncontract ServiceRequest {\r\n    \r\n    using SafeMath for uint256;\r\n    \r\n    struct Request {\r\n        uint256 requestId;\r\n        address requester;\r\n        uint256 totalFund;\r\n        bytes documentURI;\r\n        \r\n        uint256 expiration;\r\n        uint256 endSubmission;\r\n        uint256 endEvaluation;\r\n        \r\n        RequestStatus status;\r\n        \r\n        address[] stakeMembers;\r\n        mapping(address => uint256) funds;\r\n        \r\n        address[] submitters;\r\n        mapping(address => Solution) submittedSols;\r\n        \r\n        mapping(address => mapping(address => uint256)) votes;\r\n    }\r\n\r\n    // Open -> Rejected\r\n    // Open -> Approved -> Completed (TODO: Yet to get the logic for completed state - checking it is needed)\r\n    // Open -> Approved -> Closed\r\n    enum RequestStatus { Open, Approved, Rejected, Completed, Closed }\r\n    \r\n    struct Solution {\r\n        bytes solutionDocURI;\r\n        uint256 totalVotes;\r\n        \r\n        bool isSubmitted;\r\n        bool isShortlisted;\r\n        bool isClaimed;\r\n    }\r\n    \r\n    uint256 public nextRequestId;\r\n    mapping (uint256 => Request) public requests;\r\n    mapping (address => uint256) public balances;\r\n    \r\n    uint256 public minStake;\r\n    uint256 public maxStakers;\r\n\r\n    address public owner;\r\n    \r\n    address[] public memberKeys;\r\n    struct Member {\r\n        uint role; // 0-Normal member, 1-> Admin Member who can add other members\r\n        bool status; // True -> Active, False -> InActive/Deleted\r\n        bool exists; // To check the existstance of the Member\r\n    }\r\n    mapping(address => Member) public foundationMembers;\r\n \r\n    ERC20 public token; // Address of token contract\r\n    \r\n\r\n    // Events\r\n    event AddFoundationMember(address indexed member, uint role, bool status, address indexed actor);\r\n    event CreateRequest(uint256 requestId, address indexed requester, uint256 expiration, uint256 amount, bytes documentURI);\r\n    event ExtendRequest(uint256 indexed requestId, address indexed requester, uint256 expiration);\r\n    event ApproveRequest(uint256 indexed requestId, address indexed approver, uint256 endSubmission, uint256 endEvaluation, uint256 expiration);\r\n    event FundRequest(uint256 indexed requestId, address indexed staker, uint256 amount);\r\n    event AddSolutionRequest(uint256 indexed requestId, address indexed submitter, bytes solutionDocURI);\r\n    event VoteRequest(uint256 indexed requestId, address indexed voter, address indexed submitter);\r\n    event ClaimRequest(uint256 indexed requestId, address indexed submitter, uint256 amount);\r\n    event ClaimBackRequest(uint256 indexed requestId, address indexed stacker, uint256 amount);\r\n    event CloseRequest(uint256 indexed requestId, address indexed actor);\r\n    event RejectRequest(uint256 indexed requestId, address indexed actor);\r\n\r\n    constructor (address _token, uint256 _minStake, uint256 _maxStakers)\r\n    public\r\n    {\r\n        token = ERC20(_token);\r\n        owner = msg.sender;\r\n        nextRequestId = 0;\r\n        minStake = _minStake;\r\n        maxStakers = _maxStakers;\r\n    }\r\n  \r\n    function deposit(uint256 value) \r\n    public\r\n    returns(bool) \r\n    {\r\n        require(token.transferFrom(msg.sender, this, value), \"Unable to transfer token to the contract\"); \r\n        balances[msg.sender] = balances[msg.sender].add(value);\r\n        return true;\r\n    }\r\n    \r\n    function withdraw(uint256 value)\r\n    public\r\n    returns(bool)\r\n    {\r\n        require(balances[msg.sender] >= value);\r\n        require(token.transfer(msg.sender, value));\r\n        balances[msg.sender] = balances[msg.sender].sub(value);\r\n        return true;\r\n    }\r\n    \r\n    function updateOwner(address newOwner) public returns(bool) {\r\n        require(owner == msg.sender);\r\n        require(newOwner != address(0));\r\n        \r\n        owner = newOwner;\r\n        \r\n        return true;\r\n    }\r\n\r\n    function updateLimits(uint256 _minStake, uint256 _maxStakers) public returns(bool) {\r\n        require(owner == msg.sender);\r\n        minStake = _minStake;\r\n        maxStakers = _maxStakers;\r\n        return true;\r\n    }\r\n    \r\n    function addOrUpdateFoundationMembers(address member, uint role, bool active) public returns (bool) {\r\n        \r\n        require(owner == msg.sender || (foundationMembers[msg.sender].role == 1 && foundationMembers[msg.sender].status));\r\n        require(member != address(0));\r\n        require(role == 0 || role == 1);\r\n        \r\n        Member memory mem;\r\n        if(!foundationMembers[member].exists) {\r\n            memberKeys.push(member);\r\n        }\r\n        foundationMembers[member] = mem;\r\n        foundationMembers[member].role = role;\r\n        foundationMembers[member].status = active;\r\n        foundationMembers[member].exists = true;\r\n        \r\n        emit AddFoundationMember(member, role, active, msg.sender);\r\n\r\n        return true;\r\n    }\r\n    \r\n    function createRequest(uint256 value, uint256 expiration, bytes documentURI) \r\n    public\r\n    returns(bool) \r\n    {\r\n        require(balances[msg.sender] >= value && value >= minStake);\r\n        require(documentURI.length > 0);\r\n        require(expiration > block.number);\r\n\r\n        Request memory req;\r\n        requests[nextRequestId] = req;\r\n        \r\n        requests[nextRequestId].requestId = nextRequestId;\r\n        requests[nextRequestId].requester = msg.sender;\r\n        requests[nextRequestId].totalFund = value;\r\n        requests[nextRequestId].documentURI = documentURI;\r\n        requests[nextRequestId].expiration = expiration;\r\n        requests[nextRequestId].status = RequestStatus.Open;\r\n\r\n        balances[msg.sender] = balances[msg.sender].sub(value);\r\n\r\n        requests[nextRequestId].funds[msg.sender] = value;\r\n        requests[nextRequestId].stakeMembers.push(msg.sender);\r\n        \r\n        emit CreateRequest(nextRequestId++, msg.sender, expiration, value, documentURI);\r\n\r\n        return true;\r\n    }\r\n\r\n    function depositAndCreateRequest(uint256 value, uint256 expiration, bytes documentURI)\r\n    public\r\n    returns(bool)\r\n    {\r\n        require(deposit(value));\r\n        require(createRequest(value, expiration, documentURI));\r\n        return true;\r\n    }\r\n\r\n\r\n    /// the sender can extend the expiration of the request at any time\r\n    function extendRequest(uint256 requestId, uint256 newExpiration) \r\n    public \r\n    returns(bool)\r\n    {\r\n        Request storage req = requests[requestId];\r\n\r\n        require(msg.sender == req.requester);\r\n        require(req.status == RequestStatus.Open);\r\n        require(newExpiration >= req.expiration);\r\n\r\n        req.expiration = newExpiration;\r\n\r\n        emit ExtendRequest(requestId, msg.sender, newExpiration);\r\n\r\n        return true;\r\n    }\r\n    \r\n    // Anyone could add funds to the service request\r\n    function addFundsToRequest(uint256 requestId, uint256 amount)\r\n    public\r\n    returns(bool)\r\n    {\r\n        \r\n        Request storage req = requests[requestId];\r\n\r\n        require(balances[msg.sender] >= amount && amount > 0 && (amount >= minStake || req.funds[msg.sender] >= minStake) );\r\n\r\n        // Request should be Approved - Means in Progress\r\n        require(req.status == RequestStatus.Approved);\r\n        \r\n        // Request should not be expired\r\n        require(block.number < req.expiration && block.number < req.endEvaluation);\r\n\r\n        // Check for Max Stakers only for new stake \r\n        require(req.stakeMembers.length < maxStakers || req.funds[msg.sender] > 0);\r\n\r\n        //tranfser amount from sender to the Service Request\r\n        balances[msg.sender] = balances[msg.sender].sub(amount);\r\n        req.totalFund = req.totalFund.add(amount);\r\n        \r\n        // Adding funds first time check\r\n        if(req.funds[msg.sender] == 0){\r\n            req.stakeMembers.push(msg.sender);\r\n        } // else member already exists\r\n\r\n        //Update the respective request funds\r\n        req.funds[msg.sender] = req.funds[msg.sender].add(amount);\r\n        \r\n        emit FundRequest(requestId, msg.sender, amount);\r\n\r\n        return true;\r\n    }\r\n\r\n    function extendAndAddFundsToRequest(uint256 requestId, uint256 newExpiration, uint256 amount)\r\n    public\r\n    {\r\n        require(extendRequest(requestId, newExpiration));\r\n        require(addFundsToRequest(requestId, amount));\r\n    }\r\n    \r\n    function approveRequest(uint256 requestId, uint256 endSubmission, uint256 endEvaluation, uint256 newExpiration) public returns(bool) {\r\n        \r\n        // Should be foundation Member\r\n        require(foundationMembers[msg.sender].status);\r\n        \r\n        Request storage req = requests[requestId];\r\n        \r\n        // Request should be active\r\n        require(req.status == RequestStatus.Open);\r\n        \r\n        // Request should not be expired -- We should allow this\r\n        //require(req.expiration > block.number);\r\n        require(endSubmission < endEvaluation && endEvaluation < newExpiration && newExpiration >= req.expiration );\r\n        \r\n        req.status = RequestStatus.Approved;\r\n        req.endSubmission = endSubmission;\r\n        req.endEvaluation = endEvaluation;\r\n        req.expiration = newExpiration;\r\n        \r\n        emit ApproveRequest(requestId, msg.sender, endSubmission, endEvaluation, newExpiration);\r\n\r\n        return true;\r\n    }\r\n    \r\n    function rejectRequest(uint256 requestId) public returns(bool) {\r\n        \r\n        // Should be foundation Member\r\n        require(foundationMembers[msg.sender].status);\r\n        \r\n        Request storage req = requests[requestId];\r\n        \r\n        // Request should be active\r\n        require(req.status == RequestStatus.Open);\r\n        \r\n        // Change the status of the Request to Rejected\r\n        req.status = RequestStatus.Rejected;\r\n\r\n        emit RejectRequest(requestId, msg.sender);\r\n\r\n        return true;\r\n    }\r\n\r\n    function closeRequest(uint256 requestId) public returns(bool) {\r\n        \r\n        Request storage req = requests[requestId];\r\n\r\n        // Should be active foundation Member or Request Owner\r\n        require((req.status == RequestStatus.Approved && foundationMembers[msg.sender].status) ||  (req.status == RequestStatus.Open && req.requester == msg.sender));  \r\n        \r\n        // Change the status of the Request to Closed\r\n        req.status = RequestStatus.Closed;\r\n        \r\n        emit CloseRequest(requestId, msg.sender);\r\n    }\r\n    \r\n    function createOrUpdateSolutionProposal(uint256 requestId, bytes solutionDocURI)\r\n    public\r\n    returns(bool)\r\n    {\r\n\r\n        require(solutionDocURI.length > 0);\r\n\r\n        Request storage req = requests[requestId];\r\n\r\n        // Request should be active\r\n        require(req.status == RequestStatus.Approved);\r\n        \r\n        // Request should not be expired\r\n        require(block.number < req.expiration && block.number <= req.endSubmission);\r\n        \r\n        Solution memory sol;\r\n\r\n        // Check if already user submitted the solution\r\n        if(!req.submittedSols[msg.sender].isSubmitted) {\r\n            req.submitters.push(msg.sender);\r\n        }\r\n        // Create or Update the Submitted Solution\r\n        req.submittedSols[msg.sender] = sol;\r\n        req.submittedSols[msg.sender].solutionDocURI = solutionDocURI;\r\n        req.submittedSols[msg.sender].isSubmitted = true;\r\n        \r\n        emit AddSolutionRequest(requestId, msg.sender, solutionDocURI);\r\n\r\n        return true;\r\n        \r\n    }\r\n\r\n    // Only users who has stake can vote\r\n    // Foundation members can vote => Shortlist\r\n    function vote(uint256 requestId, address solutionSubmitter) public returns (bool) {\r\n        \r\n        Request storage req = requests[requestId];\r\n        \r\n        // Request should be active\r\n        require(req.status == RequestStatus.Approved);\r\n        \r\n        // Request should not be expired\r\n        require(block.number < req.expiration && block.number > req.endSubmission && block.number <= req.endEvaluation);\r\n        \r\n        // Should be foundation Member or Staking Member to Vote\r\n        require(foundationMembers[msg.sender].status || req.funds[msg.sender] > 0);\r\n        \r\n        // Check for solution Submitter status and cannot for own submission\r\n        require(req.submittedSols[solutionSubmitter].isSubmitted && msg.sender != solutionSubmitter);\r\n        \r\n        req.submittedSols[solutionSubmitter].totalVotes += 1;\r\n        \r\n        submitVote(requestId, solutionSubmitter, foundationMembers[msg.sender].status);\r\n        \r\n        emit VoteRequest(requestId, msg.sender, solutionSubmitter);\r\n        \r\n        return true;\r\n    }\r\n\r\n    function submitVote(uint256 requestId, address solutionSubmitter, bool isFromFoundation) \r\n    internal \r\n    {\r\n        \r\n        Request storage req = requests[requestId];\r\n\r\n        if(isFromFoundation && !req.submittedSols[solutionSubmitter].isShortlisted) {\r\n            // 0x0 contains foundation shortlisted solutions\r\n            req.votes[address(0)][address(0)] += 1;\r\n            req.votes[address(0)][solutionSubmitter] = 1;\r\n            req.submittedSols[solutionSubmitter].isShortlisted = true;\r\n        }\r\n        \r\n        if(req.funds[msg.sender] > 0 && req.votes[msg.sender][solutionSubmitter] == 0)\r\n        {\r\n            req.votes[msg.sender][address(0)] += 1;\r\n            req.votes[msg.sender][solutionSubmitter] = 1;\r\n        }\r\n    }\r\n    \r\n    function requestClaimBack(uint256 requestId) public returns (bool) {\r\n\r\n        Request storage req = requests[requestId];\r\n        \r\n        // Request should have funds\r\n        require(req.totalFund > 0);\r\n\r\n        // Should have stake\r\n        require(req.funds[msg.sender] > 0);\r\n\r\n        // Approved or Open request should be expiried or Request is closed / rejected\r\n        require((block.number > req.expiration && (req.status == RequestStatus.Approved || req.status == RequestStatus.Open )) || req.status == RequestStatus.Closed || req.status == RequestStatus.Rejected);\r\n        \r\n        uint256 claimBackAmt;\r\n        claimBackAmt = req.funds[msg.sender];\r\n        balances[msg.sender] = balances[msg.sender].add(req.funds[msg.sender]);\r\n        req.totalFund = req.totalFund.sub(req.funds[msg.sender]);\r\n        req.funds[msg.sender] = 0;\r\n        \r\n        emit ClaimBackRequest(requestId, msg.sender, claimBackAmt);\r\n\r\n        return true;\r\n    }\r\n\r\n    function requestClaim(uint256 requestId) \r\n    public\r\n    returns (bool)\r\n    {\r\n        uint256 fundationVotes;\r\n        uint256 userStake;\r\n        uint256 totalClaim;\r\n        uint256 userVotes;\r\n        address stakeMember;\r\n        Request storage req = requests[requestId];\r\n        \r\n        // Request should be active and should have funds\r\n        require(req.status == RequestStatus.Approved && req.totalFund > 0);\r\n        \r\n        // Request should complete the eveluation and should not expire\r\n        require(block.number > req.endEvaluation && block.number < req.expiration);\r\n        \r\n        // Should be Solution Submitter Only and should have atleast one vote\r\n        require(req.submittedSols[msg.sender].isSubmitted && !req.submittedSols[msg.sender].isClaimed);\r\n        \r\n        fundationVotes = req.votes[address(0)][address(0)];\r\n        for(uint256 i=0; i<req.stakeMembers.length;i++) {\r\n            userVotes = 0;\r\n            stakeMember = req.stakeMembers[i];\r\n            userStake = req.funds[stakeMember];\r\n\r\n            if(userStake > 0) {\r\n                if(req.votes[stakeMember][msg.sender] > 0 && req.votes[stakeMember][address(0)] > 0) {\r\n                    userVotes = req.votes[stakeMember][address(0)].sub(req.votes[stakeMember][stakeMember]);\r\n                }\r\n                else if(fundationVotes > 0 && req.votes[address(0)][msg.sender] > 0 && req.votes[stakeMember][address(0)] == 0) {\r\n                    userVotes = fundationVotes.sub(req.votes[stakeMember][stakeMember]);               \r\n                }\r\n                if(userVotes > 0) {\r\n                    userStake = userStake.div(userVotes);\r\n                    req.funds[stakeMember] = req.funds[stakeMember].sub(userStake);\r\n                    totalClaim = totalClaim.add(userStake);\r\n                    req.votes[stakeMember][stakeMember] = req.votes[stakeMember][stakeMember].add(1);\r\n                }\r\n            }\r\n        }\r\n        \r\n        req.totalFund = req.totalFund.sub(totalClaim);\r\n        balances[msg.sender] = balances[msg.sender].add(totalClaim);\r\n        req.submittedSols[msg.sender].isClaimed = true;\r\n\r\n        emit ClaimRequest(requestId, msg.sender, totalClaim);\r\n        \r\n        return true;\r\n    }\r\n\r\n\r\n    // Getters\r\n    function getFoundationMemberKeys() public view returns (address[]) {\r\n        return memberKeys;\r\n    }\r\n\r\n    function getServiceRequestById(uint256 reqId) public view \r\n    returns (bool found, uint256 requestId, address requester, uint256 totalFund, bytes documentURI, uint256 expiration, uint256 endSubmission, uint256 endEvaluation, RequestStatus status, address[] stakeMembers, address[] submitters) \r\n    {\r\n        Request memory req = requests[reqId];\r\n\r\n        if(req.requester == address(0)) {\r\n            found = false;\r\n            return;\r\n        }\r\n\r\n        found = true;\r\n        requestId = req.requestId;\r\n        requester = req.requester; \r\n        totalFund = req.totalFund; \r\n        documentURI = req.documentURI; \r\n        expiration = req.expiration; \r\n        endSubmission = req.endSubmission;\r\n        endEvaluation = req.endEvaluation; \r\n        status = req.status; \r\n        stakeMembers = req.stakeMembers; \r\n        submitters = req.submitters;\r\n    }\r\n\r\n    function getSubmittedSolutionById(uint256 requestId, address submitter) public view \r\n    returns (bool found, bytes solutionDocURI, uint256 totalVotes, bool isSubmitted, bool isShortlisted, bool isClaimed)\r\n    {\r\n        Request storage req = requests[requestId];\r\n\r\n        if(req.submittedSols[submitter].isSubmitted == false) {\r\n            found = false;\r\n            return;\r\n        }\r\n\r\n        found = true;\r\n        solutionDocURI = req.submittedSols[submitter].solutionDocURI;\r\n        totalVotes = req.submittedSols[submitter].totalVotes;\r\n        isSubmitted = req.submittedSols[submitter].isSubmitted;\r\n        isShortlisted =  req.submittedSols[submitter].isShortlisted;\r\n        isClaimed = req.submittedSols[submitter].isClaimed;\r\n\r\n    }\r\n\r\n    function getStakeById(uint256 requestId, address staker) public view \r\n    returns (bool found, uint256 stake)\r\n    {\r\n        Request storage req = requests[requestId];\r\n        if(req.funds[staker] == 0) {\r\n            found = false;\r\n            return;\r\n        }\r\n        found = true;\r\n        stake = req.funds[staker];\r\n\r\n    }\r\n  \r\n}",
  "sourcePath": "C:\\MyProjects\\SingularityNet\\snet-rfai\\snet-rfai\\contracts\\ServiceRequest.sol",
  "compiler": {
    "name": "solc",
    "version": "0.4.24+commit.e67f0147.Emscripten.clang"
  },
  "schemaVersion": "2.0.1",
  "updatedAt": "2019-10-28T04:47:39.782Z"
}